:100000000C9405020C9422020C9422020C942202FD
:100010000C9422020C9422020C9422020C942202D0
:100020000C9422020C9422020C940E280C94E228C8
:100030000C9461220C9422020C9422020C94220251
:100040000C9422020C9422020C9422020C947F172E
:100050000C9422020C94E8220C9422020C942202AA
:100060000C9422020C9422020C9422020C94220280
:100070000C9422020C9422020C9422020C94220270
:100080000C9422020C9422020C9422020C94220260
:100090000C9422020C9422020C9422020C94220250
:1000A0000C9422020C9422020C9422020763423622
:1000B000B79BD8A71A39685618AEBAAB558C1D3CF9
:1000C000B7CC5763BD6DEDFD753EF6177231BF00BD
:1000D0000000803F08000000BE922449123EABAAF7
:1000E000AA2ABECDCCCC4C3E00000080BEABAAAA52
:1000F000AA3E00000000BF000000803F000000009A
:1001000000084178D3BB4387D1133D190E3CC3BDD2
:100110004282AD2B3E68EC8276BED98FE1A93E4C7F
:1001200080EFFFBE01C4FF7F3F00000000002E00F3
:100130002B003900E1000000000004001E00140044
:1001400004001D003500000005001F001A00160005
:100150001B0049004D0006002000080007000600B3
:1001600050004A002A002100150009001900000073
:1001700000004C00220017000A0005004F00E200BA
:10018000E00023001C000B00110052002C004E0068
:10019000240018000D0010000000280000002500B9
:1001A0000C000E0036005100E4004B002600120047
:1001B0000F0037002F000000E70027001300330076
:1001C00038003000000000002D0031003400E50050
:1001D00000000000000029003C003F0042004500F4
:1001E000480000003A003D00400043004600215214
:1001F00000003B003E004100440047006152000007
:1002000001000100010001000000000001000100E8
:1002100001000100010001000000010001000100D7
:1002200001000100010001000100010001000100C6
:1002300001000100010001000100010001000100B6
:1002400000000000010001000100010001000100A8
:1002500001000100010001000100010052006200E4
:10026000010053005F005C00590000000100000025
:10027000670060005D005A00510001000100540059
:1002800061005E005B006300000001005500560045
:100290005700580058000000000001000100010054
:1002A0000100000000000000017C010001008274D8
:1002B000010001000000007C01000100427C0100FF
:1002C0000100000001000100010001000100010027
:1002D00000001403500069006C006C007A002000DC
:1002E0004D006F00640000001003640063007000A4
:1002F0006500640069007400000004030904090239
:100300003B00020100A0FA09040000010301010002
:1003100009211101000122440007058103080001A1
:10032000090401000103000000092111010001225C
:100330007B0007058203200001120100020000007B
:10034000089EDC5C3400010102000105010902A1E4
:100350000185020901A100050919012908150025D7
:1003600001950875018102050109300931158125C2
:100370007F95027508810609381581257F950175DD
:10038000088106050C0A38021581257F950175083C
:100390008106C0C005010980A101850319012AB7A2
:1003A00000150126B700950175108100C0050C09E4
:1003B00001A101850419012AA002150126A00295B8
:1003C0000175108100C005010906A101050719E0AA
:1003D00029E7150025019508750181029501750829
:1003E00081010507190029FF150026FF00950675F4
:1003F00008810005081901290515002501950575D5
:10040000019102950175039101C011241FBECFEF28
:10041000DAE0DEBFCDBF14E0A0E0B1E0EAE4F0E650
:1004200002C005900D92A835B107D9F725E0A8E5DF
:10043000B4E001C01D92A93FB207E1F70E948F11FD
:100440000C94D72F0C940000CF93DF93A6EDB3E06C
:1004500045EE53E061E070E08D91E82FE295EF709A
:10046000F0E021A18F70EB0102C0CC0FDD1F8A9557
:10047000E2F7CE018095922F982391A392A1892330
:1004800082A34A175B0741F7269A2E980E942823D9
:10049000DF91CF910895A1E0B0E0E1E5F2E00C94A6
:1004A000922E6C0110E000E0712C88248394912C32
:1004B00056012FE0A20EB11C7401002E02C0EE0CFA
:1004C000FF1C0A94E2F76E2CE98220E130E040E064
:1004D00061E08FEF0E94322361E070E0CE0101966F
:1004E0000E94C2230E94DA232E9A81E29EE40197A1
:1004F000B9F52E9881E29EE40197C9F586ED482E64
:1005000083E0582EF601562D5095D2016D912D01A4
:10051000862F82958F7090E0DC0190968C914191AE
:10052000242F30E02E213F2190E06F7002C095957E
:1005300087956A95E2F780FF21C0CF010197462990
:10054000232B09F1EA15FB0501F70F5F1F4F073059
:10055000110509F0B1CF872D2196E0E10C94AE2E64
:100560001E99C7CFA5E0AA95F1F70000C0CF1E9B4A
:10057000C5CFB5E0BA95F1F70000BECF232B11F33C
:10058000CF0101974523DC014C9377247394DACF94
:10059000809A0895CF93DF93EC0161E00E941308E5
:1005A000882329F0889ACE01DF91CF910895889809
:1005B000FACF8230B8F46F30A8F4473098F450E0A6
:1005C00097E0699F400D511D1124FA0199E6899F1A
:1005D000E00DF11D1124EE0FFF1FE25DFE4F85912E
:1005E0009491089581E090E008950E94D9020895C1
:1005F00081E008950E94F802089581E008950E9424
:10060000F80208950E94FF02089508950E940503CC
:100610000895A6E0B0E0EFE0F3E00C949F2E49834C
:100620005A839E8330915F0489819A8131111AC067
:100630003E81332399F0222389F00E94F908182F74
:10064000682F89819A810E94D50869817A81812FDA
:100650000E9410102696E3E00C94BB2E0E94E7083F
:10066000182FF3CF0E94F90869817A81F1CFFC013C
:10067000262F4081518162817381848195810E94FE
:1006800009030895CF93DF93EC0161E00E943703E3
:10069000BE010E94FA02DF91CF910895CF93DF93BC
:1006A000EC0160E00E943703BE010E940603DF9167
:1006B000CF91089581E008950E945A0308951F93F1
:1006C000CF93DF93182F0E9499070E946C1E0E94FF
:1006D000C122EC0140E063E070E084E091E00E9420
:1006E0001715812F0E945C03CE010E94D9228A3FF8
:1006F000910540F00E946C130E94CF1ADF91CF91B8
:100700001F9108958FE99FE00197F1F700C0000065
:10071000EBCF81E00E945F030E940C23089580E0EC
:100720000E945F030E941D2308950F931F93CF9390
:10073000DF938C0161E00E943703EC01B8010E9455
:100740000713811106C080E0DF91CF911F910F91B7
:100750000895B801CE010E940A198823A1F3B801B7
:10076000CE010E940203882371F3B801CE010E94DA
:10077000BE11882341F3B801CE010E94111F8823C6
:1007800011F3B801CE010E94CB208823E1F2B80119
:10079000CE010E94D21A8823B1F2B801CE010E9484
:1007A000B318882381F2F8018581882361F0C33072
:1007B000FCE7DF07E9F058F4C115ECE7DE07A9F024
:1007C000C130DC47B9F0C8010E94FD02BDCFCB3576
:1007D0008CE7D807A9F0CC35ECE7DE0771F0CA3515
:1007E000DC4789F70E94100DEECF0E948903ABCF42
:1007F0000E94180D0E948F03A6CF0E94060DE3CF22
:100800000E94140DE0CF0E943E220E9441040E94EB
:100810006C1308950E9445040E9443220895089590
:1008200081E0089580FF08C0479A81FF07C05D9A64
:1008300082FF06C0899A08954798F7CF5D98F8CF50
:1008400089980895CF93DF93D82F0E941004C82F62
:10085000882319F08D2F0E9412048C2FDF91CF91E5
:1008600008953F9A4798559A5D98819A8998089576
:10087000CF93C82F0E940F048C2F0E942204CF9187
:10088000089580E00E94380408950E9414210E9477
:1008900038040895CF930E941421C82F80915A04E0
:1008A0008C1779F0C0935A040E94CD2260935B04A8
:1008B00070935C0480935D0490935E048C2F0E947F
:1008C0003804CF910895ADE0B0E0E9E6F4E00C948F
:1008D000A02E488759876A877B878C879D879111CF
:1008E0000E94460C1F8286E0FE013896DE011196BA
:1008F00001900D928A95E1F78D8181110DC02981BA
:100900003A814B815C816D817E818F810E94900B49
:100910002D96E2E00C94BC2ECE0101960E9442037B
:100920008111EDCFF5CFFC012481213021F48081AC
:1009300091810E942B090895662329F00E945B1C77
:100940000E94401D08950E94C71CFACFCF93C82F64
:10095000882399F08CEF8C0F813A88F48C2F0E94B9
:100960009921882329F08C2F0E94DC210E94B50C4C
:100970008C2F0E94D4210E94B50CCF91089580E263
:100980008C0F883048F4C77081E001C0880FCA9589
:10099000EAF70E94290CEFCFEBE5EC0FE33040F4CF
:1009A000F0E0E55EFB4F808190E00E943A21E5CFC8
:1009B000E8E5EC0FEB3150F4F0E0EE0FFF1FEB51E8
:1009C000FC4F808191810E945F21D7CF83E38C0F00
:1009D000833198F661E08C2F0E949C04CECF88234F
:1009E00081F19CEF980F913A28F40E94DC210E943B
:1009F000B50C089590E2980F983050F4877091E00C
:100A000001C0990F8A95EAF7892F0E942F0CEFCF2A
:100A10009BE5980F933028F490E080E00E943A2103
:100A2000089598E5980F9B3128F490E080E00E94AB
:100A30005F21089593E3980F933118F460E00E94CA
:100A40009C0408951F93CF93DF93182FEB010E940E
:100A5000A604209739F4812F0E94EF04DF91CF91F3
:100A60001F9108958FE99FE00197F1F700C0000002
:100A70002197EFCF70E060E0893311F460E570E01A
:100A80000E9422050895882321F00E94290C0E94CB
:100A9000B50C0895882321F00E942F0C0E94B50CFC
:100AA0000895B0E0A0E0E7E5F5E00C94992E6C0124
:100AB000D62FC72FFC011581068102950F700E9469
:100AC0001F0CE82E8823F9F0E12E1123E1F08C2F82
:100AD000807F803461F080E28D0F883008F18C2FA8
:100AE000807E803221F4D230D8F00023C9F080918A
:100AF0006F0582FF15C082E00E94DA0C0E941F0C75
:100B000091E0E82EE926BC2EB2949FE0B922FBE0EA
:100B1000FB15B8F1EB2DF0E0E752F04D0C947B2E75
:100B2000E12CF1CF0C2F0F70C07F11F00295007FE8
:100B3000112399F0002359F080E28D0F883010F0D6
:100B4000D11107C0802F0E94290C0E94B50C8D2F57
:100B50005AC0802F0E94390CF8CF8D2F0E94EF04CD
:100B6000002379F080E28D0F883010F0D11104C09D
:100B7000802F0E942F0C03C0802F0E943F0C0E94E8
:100B8000B50CEB2DE850FF0B349720F40E94142194
:100B90000E943804EE2089F00E941B0C80FD0DC0DD
:100BA000F60115820E94150C0E943308C6010E94AE
:100BB00060070E94150C0E944308CDB7DEB7E9E03C
:100BC0000C94B52E2C2F2F70F22EC07FC03219F04E
:100BD000F29480EFF822DD2341F0D130D1F11123DE
:100BE00009F444C00023F1F0B2CF80916F0582FD7B
:100BF00015C0112359F0FF2029F08F2D0E94290CD8
:100C00000E94B50C80E00E94A604BBCF80E00E9449
:100C1000EF04FF2009F4B5CF8F2DABCF112369F07E
:100C2000011104C08F2D0E944305ABCF013009F0A4
:100C3000A8CF8F2D0E945D0CA4CF0111A2CF8F2DC4
:100C40000E944A058F2D0E94690C8F2D0E944D0C29
:100C500098CF112321F0063008F093CFE3CF053071
:100C600008F08FCF8F2D0E944A058BCF0023D1F340
:100C7000D93349F43FEF87EE93E031508040904004
:100C8000E1F700C000008D2F0E94EF047ACF8C2F77
:100C900086958695837069F0813009F072CF8D2F2B
:100CA0009C2F9370111102C080E090E00E945F21A0
:100CB00068CF8D2F9C2F9370111102C080E090E0BF
:100CC0000E943A215ECF612F8D2F0E949C0459CF44
:100CD0008C2F8370A1F5111154CF4D2F429546955D
:100CE0004770440F440F2D2F2F7030E0042E02C0A8
:100CF000220F331F0A94E2F790E080E0D4FF09C08E
:100D00008FE090E002C0880F991F4A95E2F7809526
:100D10009095C695C695C370822B932BC23049F02F
:100D200058F4C13019F00E94F2072BCF0E94E90756
:100D300028CF0E94FB0725CF0E94E60722CF869589
:100D4000112311F08C2F8170882309F41ACF4D2FB5
:100D5000429546954770440F440F2D2F2F7030E079
:100D6000042E02C0220F331F0A94E2F790E080E0C5
:100D7000D4FF09C08FE090E002C0880F991F4A9508
:100D8000E2F780959095C695C695C370822B932BFC
:100D9000C23049F058F4C13019F00E946E08F1CE0B
:100DA0000E946508EECE0E947708EBCE0E940708ED
:100DB000E8CECF70112329F08C2F0E9433088D2F9D
:100DC00032CF8D2F0E944A058C2F0E944308D9CE26
:100DD000D23F41F160F4D03FB9F0D13F81F011230F
:100DE00009F446C00111B3CE8C2F8F711FC0D33FC1
:100DF00001F1D43FA1F780916F0582FD24C08C2FB3
:100E00008F71112311F312C0112341F0053008F046
:100E1000B8CE8C2F8F710E945508B3CE063008F0E3
:100E2000B0CEF7CF8C2F8F711111CFCF0E94330826
:100E3000A8CE112329F08C2F8F710E942708A1CEF4
:100E40000E940E089ECE112349F0CF718C2F0E9474
:100E5000330863E08C2F0E94BC0C93CE81E00E948B
:100E6000DA0C023008F48DCE82E00E94DA0C89CED2
:100E7000002359F0D93309F006CFEFEFF7EE23E066
:100E8000E150F0402040E1F7FCCE8C2F8F719DCFD8
:100E90000F931F93CF93DF93EC01688179818D814C
:100EA0000E9436098C010E9480080E94E507B80163
:100EB000CE010E945105DF91CF911F910F910895AE
:100EC000CF93DF93EC018C81882399F0CE010E94AF
:100ED0009503811111C00E941F0C882351F08D8150
:100EE000882339F080916F0582FF03C082E00E9461
:100EF000DA0CDF91CF910895CE010E944807CE0110
:100F00000E944E03F6CF90E080E00E943A2190E0EC
:100F100080E00E945F210E94460C0E94B50C0E9456
:100F20005C1D0E94401D08950E94E4210E948307D9
:100F300008950E94360C0E949407089592959F7020
:100F4000963091F058F4925F9F70923058F4803F41
:100F500019F030F4883E30F481E008959A5FF4CFC0
:100F6000843FD1F380E00895883EB0F3813FD1F70C
:100F7000F3CFFC012481222339F0808191810E94EA
:100F80002B090E949E07089580E00895A6E0B0E036
:100F9000ECECF7E00C94A02E2696E2E00C94BC2E2C
:100FA000A7E0B0E0E6EDF7E00C94A02E2796E2E093
:100FB0000C94BC2E08950E94DA0708950E94DB0766
:100FC00090939B0480939A04089508950E94DE07ED
:100FD000089520919A0430919B04822B932B0E94B8
:100FE000DE07089520919A0430919B048223932375
:100FF0000E94DE07089520919A0430919B04822775
:1010000093270E94DE0708950E94CA0208950E9455
:1010100004089093990480939804089590E080E0E8
:101020000E9407080895009729F481E0662371F073
:1010300080E00CC021E030E002C0220F331F6A952F
:10104000E2F72823392381E0232B91F3089521E04F
:1010500030E0A90102C0440F551F8A95E2F7CA018A
:101060000E940708089521E030E002C0220F331FDC
:101070008A95E2F78091980490919904822B932BA2
:101080000E940708089521E030E002C0220F331FBC
:101090008A95E2F720953095809198049091990473
:1010A000822393230E940708089521E030E002C0C4
:1010B000220F331F8A95E2F780919804909199044A
:1010C000822793270E940708089520919804309161
:1010D0009904822B932B0E9407080895209198046D
:1010E00030919904822393230E9407080895209148
:1010F000980430919904822793270E940708089545
:101100000895262F277091E001C0990F2A95EAF7DC
:1011100023E0769567952A95E1F7660F771F660FAE
:10112000771FFA01E60FF71F50E040E0682F70E0EC
:101130008191DF0111979B01042E02C036952795FE
:101140000A94E2F7217021952827292328272C9338
:101150004F5F5F4F4430510559F70895A82FA7708E
:1011600023E0969587952A95E1F7880F991F880FB8
:10117000991FFB01E80FF91F50E040E080E021914A
:1011800030E00A2E02C0369527950A94E2F72170C6
:101190003327042E01C0220F0A94EAF7822B4F5FF7
:1011A0005F4F4430510559F70895262F9F3070F452
:1011B000873060F4682F70E087E0989F600D711DA4
:1011C000112440E654E0822F0E9481080895292FBF
:1011D0009F3068F4873058F490E060E674E037E0C0
:1011E000239F800D911D11240E94AE08089580E078
:1011F0000895B0E0A0E0EFEFF8E00C94992E7C01A8
:10120000009198041091990480919A0490919B0404
:10121000082B192BCFE0D0E0CC24C394D12CBC2ECA
:10122000C6010C2E02C0880F991F0A94E2F7802392
:101230009123892B49F4219790F7B12C8B2DCDB7B1
:10124000DEB7E9E00C94B52EB7018C2F0E941C107C
:10125000019789F3F3CFCF93DF93EC010E94F90854
:10126000BE010E941C10DF91CF9108951F93CF9370
:10127000DF93EB0190915F04992339F0CB010E9439
:101280002B09DF91CF911F910895882369F0CB013D
:101290000E94F908182F682FCE010E94D508BE01C0
:1012A000812F0E941C10EDCFCB010E94E708182F60
:1012B000F6CF1F93CF93DF93C0919C0417E08091EA
:1012C0009D048C1304C0DF91CF911F910895D0E04D
:1012D0001C9FF0011D9FF00D1124E256FB4F208151
:1012E0003181428153816481758186810E94D0075A
:1012F0002196C770E4CF2091D6043091D704409155
:10130000D8045091D9046091DA047091DB04809183
:10131000DC040E94D0070895CF93DF938091DC0412
:10132000807F09F04DC08091DB04882309F448C018
:10133000E0919C0450919D04C091D704D091D604B3
:101340006091D8047091D90447E05E17C9F18E2FDF
:1013500090E0E49FF0011124E256FB4F2481222308
:1013600091F1489FF001499FF00D1124DF01A25631
:10137000BB4F11962C9111972C1325C02C912D1336
:1013800022C015962C91159721111DC012962D91F2
:101390003C91261B370B283C3105A8F48091DC04D6
:1013A0008F7080618093DC04EC55FB4F80818F70DF
:1013B0008061808386ED94E00E9460070E94590955
:1013C000DF91CF910895FC013196E770BECF482F91
:1013D00020919C0490919D0457E0291302C080E065
:1013E000089530E0529FF001539FF00D1124E25612
:1013F000FB4F8181681306C08081481303C085813B
:101400008111EECF2F5F3F4F2770E7CFA4E1B0E00F
:10141000ECE0FAE00C94962E8C0186E0F801DE01F7
:101420001F9601900D928A95E1F7F8018481E5807D
:1014300096EDA92E94E0B92E9091DA0491111FC077
:101440008823D1F0EE20A9F0C8010E94B907F82E38
:10145000882379F087E0F801D50101900D928A95F3
:10146000E1F7C5010E9493040E948C090E947B0948
:101470005FC0C8010E946007FF24F39459C0C08078
:10148000D18082809380F090DB042091D804309149
:10149000D904A401421B530BFF2009F4F9C0483CB6
:1014A000510508F0A7C0882309F442C09091D704E1
:1014B0008091DC04282F207F09F05CC09D1116C0AC
:1014C0009091D604C91212C0E1104EC08F70806195
:1014D0008093DC040E947B0986ED94E00E94600703
:1014E0008091DC04F8018683F12C22C0E1103CC01D
:1014F0006D2D8C2D0E94E7096D2D8C2D0E94E70922
:10150000E82E8111F1CFCF86D88A8F8598890E94E5
:101510002B09292F22952F70243078F49F702230C8
:10152000A8F09923B9F0F8019681907F99F4FE2CE8
:101530008F2D6496ECE00C94B22E2A5F2F7022302F
:1015400068F0C8010E946007EF2CF1CF992311F0D9
:10155000882369F3805E883050F3F3CF803F38F3FF
:10156000815F833070F7E3CF8091DC0481608093EA
:10157000DC04BACF9D1113C09091D604C9120FC0DC
:10158000E1100DC08683C8010E94600787E0F80162
:10159000A6EDB4E001900D928A95E1F767CFC801FE
:1015A0000E94B907882309F464CFEE2009F461CFC3
:1015B0008091DC04803288F02091D6043091D704E9
:1015C000398728879B868A869091DA049C871D86B6
:1015D0008E87CE0108960E94600787E0F801A6ED8D
:1015E000B4E001900D928A95E1F70E948C090E9467
:1015F0007B0942CF9091DC04292F207FA1F4682D34
:101600009A8A898AA6017A899E2D0E94C60786ED4C
:1016100094E00E94600787E0F50111928A95E9F74E
:101620000E947B0961CF882309F482CF8091D7047F
:101630008D1110C08091D604C8120CC0E1100AC0F0
:101640009683C8010E94600787E0F50111928A9590
:10165000E9F76ECFC8010E94B907882309F409CFC2
:10166000EE2009F406CF8091DC04803208F4B5CF77
:101670002091D6043091D7043A8329839C828B82AF
:101680009091DA049D831E828F83CE010196A3CFB1
:10169000483C5105B8F5882309F4EECEFE2CEE2027
:1016A00009F4E7CE8091D7048D111EC08091D60435
:1016B000C8121AC08091DC0480FD0DC0982F907F65
:1016C00051F08683903F09F45ECF982F907F905F12
:1016D0008F70892B57CF87E0F801A6EDB4E0019019
:1016E0000D928A95E1F724CFC8010E94B9078111B4
:1016F00074CF8091DC0481608093DC04C8010E9477
:10170000600716CF682D9A8A898AA6017A899E2D4C
:101710000E94C60787E0F50111928A95E9F7A6CEE7
:10172000AEE0B0E0E6E9FBE00C949F2E2887398715
:101730004A875B876C877D878E87CE0108960E94DB
:10174000060A8823B1F06C85662341F02885398527
:101750004A855B857D858E850E94D00717E0809144
:101760009C0490919D0489133DC02E96E3E00C9457
:10177000BB2E87E0FE013896DE01119601900D9296
:101780008A95E1F78C85882349F320919D0430E008
:10179000C90101968770992740919C044817190642
:1017A00099F097E0929FD001939FB00D1124A2561B
:1017B000BB4FFE01319601900D929A95E1F780930F
:1017C0009D040E945909CACF0E94990710929D0456
:1017D00010929C0487E0E6EDF4E0DF011D928A950B
:1017E000E9F7BCCF819FC001112482569B4F0E9414
:1017F000060A882309F4B9CFE0919C041E9FF001EA
:101800001124E256FB4F2081318142815381648152
:10181000758186810E94D00780919C0490E001969A
:101820008770992780939C049ACF8091E5048695D0
:101830008695869508958091E50487700895909126
:10184000E504977081E009F480E008958091F10447
:1018500008959091F104892B8093F1040895809567
:101860009091F10498239093F10408951092F1045B
:1018700008959091F004892B8093F0040895809549
:101880009091F00498239093F00408951092F0043E
:10189000089508950E94490C08959091E604292F17
:1018A000282331F0809589238093E6040E944A0C16
:1018B000089508950E94590C08959091E704292FE6
:1018C0002823281729F0982B9093E7040E945A0C9C
:1018D00008959091E704292F282331F080958923DA
:1018E0008093E7040E945A0C08958091E7048823AE
:1018F00029F01092E70480E00E945A0C08950F939B
:101900001F93CF93DF9300911C0110911D01C09193
:10191000F1048091F004C82B8091E704882331F012
:10192000C82B0E94842181110E94750CF801C0838C
:10193000C0911C01D0911D0148E050E06DED74E0B4
:10194000CE010E94372F892B59F088E0FE01ADEDC2
:10195000B4E001900D928A95E1F7CE010E94212119
:10196000DF91CF911F910F9108950E947F0C0895F0
:1019700008950E94B80C089590916F0592FF11C0D0
:1019800098E0899F90011124622B6093E5040E94E6
:1019900033088091E5048695869586950E94B90C5A
:1019A00008950E94330808951092E50480E00E9493
:1019B000B90C08959091E504809589238093E504FE
:1019C000282F277069F4891759F090916F0592FFBD
:1019D00007C08695869586950E9443080E94D40C80
:1019E000089590916F0592FB222720F9281769F03E
:1019F00080FB92F990936F0580916E0590916F0531
:101A00000E94390D82E00E94DA0C089580916F05E2
:101A100082FB882780F991E089270E94F10C0895C4
:101A200081E00E94F10C089580E00E94F10C08957D
:101A30006FEF7FEF90E080E00E948F2F089590E09D
:101A400080E00E945B2F21E0863E9E4F09F020E05F
:101A5000822F089582E090E00E944D2F089583E048
:101A600090E00E944D2F089584E090E00E945B2F4B
:101A70000895BC0184E090E00E948F2F089587E0D4
:101A800090E00E944D2F0895682F87E090E00E941B
:101A9000712F0895AB01BC018FE090E00E94832F6D
:101AA0000895AB01BC0183E190E00E94832F08956B
:101AB00060E070E0CB010E94510D089560E070E09D
:101AC000CB010E944A0D0E94580D0895A8E0B0E095
:101AD000ECE6FDE00C94A02E66EE7EEF90E080E058
:101AE0000E948F2F60E082E090E00E94712F81E0E1
:101AF00090E090939B0480939A0461E083E090E0EF
:101B00000E94712F60E074E184E090E00E948F2FCA
:101B100060E086E090E00E94712F60E087E090E056
:101B20000E94712F40E050E0BA0188E090E00E94EE
:101B3000832F60E084E290E00E94712F60E087E1F3
:101B400090E00E94712F60E08CE090E00E94712F85
:101B500060E08DE090E00E94712F19821A821B8252
:101B60001C821D821E821F82188648E050E068E1B8
:101B700070E0CE0101960E94612F40E050E0BA0172
:101B800080E290E00E94832F0E94B2190E945E0DB5
:101B90002896E2E00C94BC2E0E94660D089580E227
:101BA00090E00E94552F0895AB01BC0180E290E0C7
:101BB0000E94832F0895682F8EE090E00E94712F7D
:101BC0000895A6E0B0E0E7EEFDE00C949E2E0E94A2
:101BD000C1228C018091F2049091F3048017910747
:101BE00081F019821A820E94C122682F49815A818C
:101BF000792F80E090E00E9463041093F304009337
:101C0000F2042696E4E00C94BA2E0E94CD22609352
:101C10000A0570930B0580930C0590930D05609356
:101C200006057093070580930805909309050895AC
:101C3000089508950E94180E089508950E941D0E9B
:101C4000089582E191E10E949C110E94190E0E9468
:101C50001A0E089581E008950E942A0E08950E94A8
:101C60002A0E0895089508950E94320E0E94330EA0
:101C700008950E941F0D811102C00E94CC0D0E9488
:101C80002A0D80930E050E94340D90936F0580936A
:101C90006E050E94B0180E942F0D90E00E94E6078A
:101CA00080919804909199040E94040808950E94DC
:101CB000B8220E9422110E94390E0E9431040E9413
:101CC00093130E94CC190E941E0E08958091050561
:101CD00081110CC08091030590910405009749F48F
:101CE0000E94C12290930405809303050E94AB1EBD
:101CF00008950E94D9228D329140C0F30E947D1533
:101D000081E080930505F2CFA6E0B0E0EAE8FEE0CE
:101D10000C94972E0E942C0E81110EC00E94E10D92
:101D20000E94660E0E947E1D0E9460190E944A0455
:101D30002696EBE00C94B32E0E94341184EFA82E6B
:101D400084E0B82E750110E0F70101917F01812F29
:101D50000E941B111F5F1F3009F441C00817A1F337
:101D600080910E0581FD0E9421110E942F0EC82E28
:101D700010E099249394812F0E941B11082FF501E4
:101D800081915F01081729F1D02ED826F12CEE247D
:101D9000E3948D2D8E21A9F0CC2099F0F9821A833D
:101DA0000E94C1229C838B839D8291E0802F8E2193
:101DB00009F490E049815A816B817C818D810E9478
:101DC0006304F394EE0CF7E0FF12E3CFF5013197D3
:101DD00000831F5F1F3079F60E94050EA1CF081304
:101DE000BFCF9CCF1F93CF93DF930E942110EC01B4
:101DF000C11580E5D807F0F5C11580E4D80708F0D3
:101E00009CC0C03ED10520F5CD3CD10508F082C074
:101E1000C83AD10578F4C53AD10508F073C0C1308D
:101E2000D10519F1209709F1C430D105F0F4D0E0C3
:101E3000C0E01BC0C33CD105D0F7C85AD0E0CC0FDE
:101E4000DD1FC25EDB4F0990D881C02DD4640DC068
:101E5000C11580E2D80708F0D1C0C11581E0D807CC
:101E600008F05AC0C83ED10510F7CE01DF91CF91DE
:101E70001F910895C03682E5D80718F5C03482E571
:101E8000D80708F06BC0C03282E5D80708F05FC001
:101E9000C11582E5D80708F497C02C2F2695269502
:101EA00080E2289F900111248C2F8370C1E0D0E044
:101EB00002C0CC0FDD1F8A95E2F7C22BD32BDD6861
:101EC000D4CFC03A82E5D80760F4C03882E5D8079D
:101ED00008F459C0CF71D0E0DC2FCC27C46FD06A92
:101EE000C4CFC03C82E5D80708F462C0C03E82E59A
:101EF000D80708F09CCFDC2FCC27CC27DF71C06F30
:101F0000D06AB3CFC55AD0E0CC5ADB4FC881D0E0FD
:101F1000D064ABCFD065A9CF8D2F0E94C310182FEE
:101F2000CE0199270E942110C12FD0E0DC2FCC27B1
:101F3000CC27DF71C82BD92B98CFCE0199270E94CF
:101F40002110CC27DF70C82BD92BD06A8ECFCF7150
:101F5000D0E0DC2FCC27C16FD06A87CF2C2F2695FD
:101F60002695277080E2289F900111248C2F837082
:101F7000C1E0D0E002C0CC0FDD1F8A95E2F7C22B92
:101F8000D32BDC6872CF2C2F26952695277080E204
:101F9000289F900111248C2F8370C1E0D0E002C0F3
:101FA000CC0FDD1F8A95E2F7C22BD32BDA685DCF09
:101FB0008C2F8F710E94C310C82FD0E0DC2FCC274C
:101FC000CC27DF71D06251CF8C2F8F710E94C3104C
:101FD00055E0D695C7955A95E1F7CF70D0E0DC2F44
:101FE000CC27282F30E084FF05C044E0220F331FA8
:101FF0004A95E1F7C22BD32BD06937CF8D2F8F7144
:102000000E94C310182FCE0199270E942110C12FC2
:10201000D0E0DC2FCC27CC27DF71C82BD92BD2CF37
:10202000462F7F3030F4673020F4672F0E94F5028E
:10203000089590E080E008950E9410100E94F20E32
:10204000089582389105B9F1B0F48133910509F40E
:102050007DC048F48932910509F46DC08A3291053A
:1020600009F47BC008958533910509F45FC0893375
:10207000910509F10895833E9105D9F138F4803E28
:10208000910529F1823E910579F10895863E9105E9
:10209000D9F1873E910509F43EC0843E910541F592
:1020A00020916F0521FF24C080916E0584FD19C029
:1020B00087EE90E0089520916E05237009F05AC0D4
:1020C00020916F0523FF14C089E290E008952091CC
:1020D0006E0520FD38C030916F0530FF09C024FF28
:1020E00043C090E080E0089520916E0522FDF7CF77
:1020F000089520916E0522FD3AC030916F0530FDA4
:1021000039C024FFF5CFEDCF20916E0523FFF0CF2E
:1021100024FDE7CFCDCF20916E0523FD2EC0309159
:102120006F0531FFEECF84EE90E0089520916E05AB
:1021300025FFDECFC9CF20916E0525FD21C020915E
:102140006F0523FFD5CF89E390E0D2CF20916E05B4
:1021500026FFCECF8AE290E0089520916E0526FFFB
:10216000C7CF81E390E0089583EE90E0089582EE7A
:1021700090E0089580EE90E0089586EE90E0089556
:1021800085E390E0089590916E0592FF10C041E0C4
:10219000282F2471243009F040E031E0282F2871E5
:1021A000283009F030E0431711F02CE0822793FF2C
:1021B00010C041E0282F2471243109F040E031E0C3
:1021C000282F2871283109F030E0431711F02CE056
:1021D000822730916F0530FF10C051E0282F217108
:1021E000213009F050E041E0282F2871283009F013
:1021F00040E0541711F029E0822731FF10C041E080
:10220000282F2171213109F040E031E0282F287179
:10221000283109F030E0431711F029E0822794FDBE
:10222000877E089580E008950E94C8020895089569
:102230000E9417110895E82FF0E0E158FA4F8081CD
:10224000089508950E942402E0E7F5E0AFE7B5E0C5
:1022500011921D9285E0EF37F807D1F78FE00E94C9
:1022600047110E9414110895CF9380E795E00E94D2
:102270004B02282F4FE06FE775E080E795E00E9462
:102280004811C82F0E9418118C2FCF9108950895DE
:10229000B0E0A0E0EEE4F1E10C949A2E6C017B0139
:1022A000042FC22F222379F081E0809311050E9430
:1022B000C1229093100580930F0580E0CDB7DEB763
:1022C000E8E00C94B62ED0911105DD23B1F3809196
:1022D0000F05909110050E94D922059770F310E028
:1022E000A801B601C7010E94372F892B31F0A80140
:1022F000B601C7010E94442FCD2F109211058C2FDB
:10230000DDCF0E945F250E94570E0E946C25089524
:102310000E9471250E94840E0E948B2508950E94C0
:102320005A220E9445250E94210E0E9481110E947E
:1023300088110E94340EFBCF909359048093580467
:1023400008958554990BBC01990F880B990B0E9435
:102350009E2B20E030E040E451E40E94FB2A9B01E8
:10236000AC0160E070E080E090E40E94C02C20E0CE
:1023700030E04CED53E40E94532C0895FB0180386B
:1023800024E7920739F485818823A1F10E94CE16B3
:1023900080E00895813824E7920731F4858188230D
:1023A00049F10E94E016F4CF823824E7920741F405
:1023B00085818823F9F00E9468138111F2CFE6CF5E
:1023C000843924E7920769F48581882399F00E9473
:1023D000FA1740E064E070E08EE191E00E9417158A
:1023E000D7CF8539944731F48581882319F00E942D
:1023F000FD17EFCF81E008950E94A1110E94D8142B
:1024000008950E94A1110E94B91308950E946C13AF
:102410000895CF92DF92EF92FF928091560581113D
:1024200077C080915505811173C08091E20580FFCE
:102430006FC060915A0170915B0180915C01909135
:102440005D019B01AC010E948A2A6B017C010E9404
:10245000272FBC01990F880B990B0E949E2B20E01F
:102460003EEF4FEF56E40E94FB2A20915601309137
:10247000570140915801509159010E94532C20E07E
:1024800030E040E85FE30E948A2AA70196010E949B
:10249000532C6093460170934701809348019093B9
:1024A00049010E94272FBC01990F880B990B0E94AC
:1024B0009E2B20E03EEF4FEF56E40E94FB2A209136
:1024C00056013091570140915801509159010E9495
:1024D000532C20E030E040E85FE30E948A2A2091FC
:1024E0005A0130915B0140915C0150915D010E9465
:1024F000532C60934E0170934F0180935001909341
:10250000510140E063E070E08EE391E00E94171516
:10251000FF90EF90DF90CF900895CF92DF92EF92EF
:10252000FF9229E038E348E95FE360915A01709136
:102530005B0180915C0190915D010E94532C6B01C5
:102540007C0120E030E84BEB54E40E94F62A87FF40
:1025500008C0C0925A01D0925B01E0925C01F092F7
:102560005D01FF90EF90DF90CF900895CF92DF92C2
:10257000EF92FF9229E038E348E95FE360915A0166
:1025800070915B0180915C0190915D010E94FB2A3A
:102590006B017C0120E030E042E852E40E944E2CC6
:1025A000181644F4C0925A01D0925B01E0925C018B
:1025B000F0925D01FF90EF90DF90CF90089580E062
:1025C00090E0ACEDB3E480935A0190935B01A0934B
:1025D0005C01B0935D0108959091E205892F8D7F94
:1025E00091FF82608093E2050E94440D08958091DE
:1025F000E20582608093E2050E94440D0895809177
:10260000E2058D7F8093E2050E94440D08950F93AB
:102610001F93CF93DF93EC018B01CA3884E7D8076F
:1026200081F4FB01858181110E94EC12CE38F4E720
:10263000DF0751F5F8018581882331F10E94B61238
:1026400023C0CB38F4E7DF0799F0CC3884E7D8070C
:10265000B1F0CF38E4E7DE0761F1CD3884E7D80781
:1026600029F7F8018581882379F00E948D120CC02A
:10267000FB0185818823D1F20E94F712D7CFFB019D
:10268000858181110E94FF128091E2058370833061
:1026900051F4F8018581882331F0C058D44722973E
:1026A00010F00E94091281E0DF91CF911F910F91EC
:1026B0000895F8018581882339F30E94DF12E4CF61
:1026C000E2EEF5E08081876080830E94440D0895EA
:1026D0008091E2058170089580915E01811122C090
:1026E00010921D050E94701710921C0510921B0578
:1026F0001092190510921805E2EAF5E080E090E0EA
:10270000A0E8BFEB1182108282839383A483B583F8
:1027100017821682389625E0E23EF20799F781E0AB
:1027200080935E01089580911205811121C00E945D
:102730003F0D8093E20582FF0E946013E2EAF5E01C
:1027400080E090E0A0E8BFEB118210828283938347
:10275000A483B58317821682389625E0E23EF207FD
:1027600099F70E94661781E0809312050E946C130E
:102770000895B0E0A0E0EFEBF3E10C949A2E6B012A
:102780007C0120E030E0A9010E94F62A87FF04C006
:10279000F7FAF094F7F8F09480911B05882309F478
:1027A00058C080911205811102C00E94931302EA61
:1027B00015E0C7E0D0E0A7019601F80162AD73AD66
:1027C00084AD95AD0E94F62A81113CC083E0CC0F08
:1027D000DD1F8A95E1F7CE55DA4F1982188280E025
:1027E00090E0A0E8BFEB8A839B83AC83BD831F820C
:1027F0001E82AC01BD01F5E0CA3DDF0789F4C1E0EE
:10280000C0931A0580911D05815080931D0581118B
:1028100020C00E947017C0935E0110921B0519C062
:1028200088E0FE013896DE0101900D928A95E1F76D
:10283000198618864A875B876C877D871F861E8668
:102840002896D9CF219708501109CF3FDC0709F00E
:10285000B2CFCDB7DEB7E8E00C94B62EB0E0A0E082
:10286000E4E3F4E10C94962E6B017C018A018091E3
:10287000E20580FF7AC080911205811102C00E949A
:10288000931320E030E0A901C701B6010E94F62AA7
:1028900087FF04C0F7FAF094F7F8F094D0911D0583
:1028A0002D2F2150330B59013FEFA316B30609F02A
:1028B00040C0DF5FD93008F478C088E080931D0500
:1028C00082EA95E028E0FC013896DC0101900D9247
:1028D0002A95E1F70896E5E08A3D9E0799F781E0A1
:1028E00080931A0580931B05C0911D05C150DD0B17
:1028F0000E94C122FE0123E0EE0FFF1F2A95E1F79F
:10290000EE55FA4F91838083C282D382E482F582AE
:10291000178306830E94C122909328058093270580
:1029200080915E01882309F10E94731710925E0165
:102930001CC0C50133E0880F991F3A95E1F7FC01EF
:10294000EE55FA4F4F01A701960162817381848190
:1029500095810E94F62A811124C0E40180911D0511
:102960008150990BA816B9062CF0CDB7DEB7ECE074
:102970000C94B22EFFEFAF1ABF0A88E0FE01389622
:10298000DE0101900D928A95E1F70E94C12299879C
:102990008887CA86DB86EC86FD861F870E87289689
:1029A000DDCF21E0A21AB1087FCFD0931D0597CFCC
:1029B0004FEF5FEF0E942E140895CF92DF92EF92B7
:1029C000FF92E0911D058E17F0F4E150E81B88E0BE
:1029D000E802F0011124EE55FA4FC280D380E48062
:1029E000F58020E030E0A901C701B6010E94F62A77
:1029F00018164CF4C701B6010E940018FF90EF9022
:102A0000DF90CF90089560E070E0CB01F7CF9C019C
:102A1000A3E5B7E00E94812E2091970130E0220FBC
:102A2000331F50E040E00E94592EC9010895FF92E3
:102A30000F931F93CF93DF93EC018B01F42E8091C2
:102A4000E20580FD07C00E946C13CDB7DEB7E5E05C
:102A50000C94B92E672BC9F380911205811102C025
:102A60000E94931380911B0581110E946C1381E0D9
:102A700080931C0510921505D093A105C093A00565
:102A800010938F0500938E05F092E30510921705C1
:102A9000109216056C817D818E819F810E946D2B25
:102AA000CB010E940715AC01688179818A819B81E5
:102AB0000E942E140E94C122909314058093130546
:102AC000E091A005F091A105809116059091170560
:102AD00023E0880F991F2A95E1F7E80FF91F648119
:102AE0007581868197810E946D2BCB010E9407150D
:102AF0009093190580931805A8CF8091E20580FF77
:102B000007C040E063E070E08FE791E00E94171596
:102B10000E94C122909314058093130508958F920B
:102B20009F92AF92BF92DF92EF92FF920F931F930B
:102B3000CF93DF9380911B05811105C0C0911C05C7
:102B4000CC2309F4B0C00E94C122EC01D0901C0536
:102B5000D11023C0D12C80911B05CD2D8823A1F04D
:102B6000C0912905C11105C0C0912A05C11101C03C
:102B7000CD2D02EA15E0F12CE12C80911D058E157A
:102B80001F0411F00CF0EBC080911A05882309F4A2
:102B90008AC010921A05C82F86C0809113059091A3
:102BA00014050E94D9222091180530911905821729
:102BB000930780F280911305909114050E94D92209
:102BC00020911805309119057C01E21AF30AD0937F
:102BD0001405C0931305A0901605B0901705C50104
:102BE000019690931705809316050E94C122909339
:102BF00028058093270500918E0510918F058091FF
:102C00001605909117058017910748F0C091E305CC
:102C1000CC2309F446C01092170510921605C091F6
:102C2000A005D091A1058090160590901705809180
:102C3000150533E0880C991C3A95E1F7811140C0E5
:102C4000F50123E0EE0FFF1F2A95E1F7EC0FFD1FC2
:102C5000DE01A80DB91D2D913D914D915C916081D2
:102C60007181828193810E94F62A811129C081E0BD
:102C70008093150582E090E00E940715AC0160E0AA
:102C800070E0CB010E942E14B0921705A092160599
:102C900082E090E00E940715909319058093180533
:102CA0005ACF0E946C138C2FDF91CF911F910F91FF
:102CB000FF90EF90DF90BF90AF909F908F9008951E
:102CC00010921505FE01E80DF91D6481758186815C
:102CD00097810E946D2BCB010E94071501501109AD
:102CE00020911605309117058E159F0518F42017B1
:102CF0003107D8F08C010E191F09E816F90610F0FB
:102D000001E010E083E0220F331F8A95E1F7C20F44
:102D1000D31F688179818A819B81A8010E942E142A
:102D2000109319050093180516CFE81AF90A2F5FBA
:102D30003F4F309317052093160593E0220F331F62
:102D40009A95E1F7FE01E20FF31F64817581868198
:102D500097810E946D2BCB010E940715C1CFF8010E
:102D60008681978101978E3F9F4F88F4F80180817B
:102D700091810E94D922F801268137818217930719
:102D800030F062817381848195810E94B913FFEFD5
:102D9000EF1AFF0A085F1F4FF0CE08958091E205F9
:102DA00081608093E2050E94440D0E94CD1640E0B0
:102DB00062E070E08FE691E00E9417150895089593
:102DC00040E062E070E08FE591E00E9417150E94FC
:102DD000DF162FEF81EE94E0215080409040E1F724
:102DE00000C000000E946C138091E2058E7F8093EA
:102DF000E2050E94440D0895CF92DF92EF92FF9278
:102E00006B017C0120E030E0A9010E94F62A8111CB
:102E10000AC080918000837F80938000FF90EF90B4
:102E2000DF90CF900895809180008860809380002B
:102E3000C0922205D0922305E0922405F092250548
:102E400020E030E040E051E4C701B6010E94532C7D
:102E50009B01AC0160E074E284E79BE40E94FB2AE2
:102E60006B017C010E946D2B70938700609386003C
:102E70006091980170E090E080E00E949E2BA70195
:102E800096010E94532C20E030E048EC52E40E946E
:102E9000FB2A0E946D2B70938D0060938C00BECF37
:102EA000EFE6F0E0808188608083E0E8F0E08081F8
:102EB000886080830895EFE6F0E08081877F8083DB
:102EC000E0E8F0E08081837F808308950E945B17B3
:102ED000279A82E0809380008AE1809381000895A0
:102EE0000E945B1708950E94501780911B0588234C
:102EF00029F080E00E94DD140E94FC1608951F92C4
:102F00000F920FB60F921124CF92DF92EF92FF92A1
:102F10002F933F934F935F936F937F938F939F93E1
:102F2000AF93BF93EF93FF9380911E0590911F0580
:102F3000A0912005B09121050196A11DB11D80939E
:102F40001E0590931F05A0932005B0932105609165
:102F50001E0570911F0580912005909121050E940A
:102F60009C2B6B017C0120E030E040E85CE3609149
:102F700022057091230580912405909125050E94DA
:102F8000532C9B01AC01C701B6010E94F62A87FDB4
:102F900014C010921E0510921F0510922005109269
:102FA00021050E948F1590911B0591111BC09091D6
:102FB0001C05911117C00E945B17FF91EF91BF9103
:102FC000AF919F918F917F916F915F914F913F91C1
:102FD0002F91FF90EF90DF90CF900F900FBE0F904A
:102FE0001F901895882349F380E00E94DD140E9409
:102FF000FC16E3CF10922605089510922605089539
:1030000020912605211102C010922A0508950E94E0
:10301000441A089590E0FC01E55DFA4F20812111EA
:103020000AC0289AFC01E15DFA4F1082825D9A4F36
:10303000FC01108208952898F5CFCF93DF93C82F15
:10304000D0E08091E50580FD06C0FE01E15DFA4F0C
:10305000908191111DC0FE01E25DFA4F80FF03C017
:103060008081811115C0DE01A15DBA4F81E08C9392
:1030700080830E94C122FE01EE0FFF1FE45DFA4F24
:1030800091838083C55DDA4F8881882321F0289A57
:10309000DF91CF9108952898FBCF80E00E941D1802
:1030A000089580912F05882359F180912C059091E6
:1030B0002D050E94D9222091E505322F369538172B
:1030C000190620F480E00E940A18089520FF18C015
:1030D00090912E0582FD0BC0911112C081E080936A
:1030E0002E0580912B05882351F0289A0895992365
:1030F00039F010922E0580912B058823B1F3289882
:10310000089581E080932B052898209A80E00E9402
:103110001D18089580912B05811102C0289A0895E9
:10312000289808950E94180D089580E00E941B11B0
:10313000817008950E9434112FEF86E791E02150AD
:1031400080409040E1F700C000000E9434110E94CE
:103150009518882321F00E9492180E940C2308954C
:103160000E949A180895CF93DF93EB0186319C4714
:1031700011F50E94260C9D81992399F08A7A91E09D
:1031800009F490E090933005811109C089E20E9412
:10319000D4210E94B50C80E0DF91CF91089585E3A2
:1031A000F6CF80913005811104C089E20E94DC21B4
:1031B000F0CF85E3FBCF81E0EFCF811522E59207C9
:1031C00078F48115E0E59E0718F5803E910530F012
:1031D000883E9105E8F081159042A8F481E012C084
:1031E000803222E59207D0F38034E2E59E0780F03A
:1031F000805C9245809790F7FB019681907F81E0FB
:10320000903531F40895FB019681907F81E0D1F7EC
:1032100080E008950F931F93CF93DF938C01EB0110
:103220008D81882361F0F801E054FC47ED30F10511
:1032300030F4EB51F04D0C947B2E0E9463190E94E8
:10324000801A882371F08D818823A9F10E94841A45
:10325000823038F4BE01C8010E94DD1881110E943D
:10326000CC1A81E0DF91CF911F910F9108950E94B8
:103270007319E5CF0E948319E2CF0E94B219DFCF04
:103280000E949719DCCF0E94381AD9CF0E94081AE1
:10329000D6CF0E940F1AD3CF0E94561AD0CF0E94C9
:1032A0006B1ACDCF0E94AE1ACACF0E94B81AC7CFF0
:1032B0000E94C21AC4CF0E94841A882391F2CACFF6
:1032C0000E9451180895E4EEF5E0808181608083CA
:1032D0006091E4057091E5058091E6059091E70520
:1032E0000E94D40D0895E4EEF5E080818E7F808306
:1032F0006091E4057091E5058091E6059091E70500
:103300000E94D40D08958091E40580FF0DC00E94B5
:1033100073196091E4057091E5058091E60590913F
:10332000E7050E94D40D08950E946319F2CF909191
:10333000E70581E0890F83709C7F892B8093E705E7
:10334000982F9370933019F48C7F8093E7056091E8
:10335000E4057091E5058091E6059091E7050E94EE
:10336000D40D0895E4EEF5E080818160808388E1EA
:103370008183E7EEF5E080818C7F80838CE00E9482
:1033800007186091E4057091E5058091E60590913C
:10339000E7050E94D40D08950E941F0D811102C0FF
:1033A0000E94CC0D0E94CF0D6093E4057093E5055B
:1033B0008093E6059093E7058091E50586950E9448
:1033C00007188091E4059091E505A091E605B0917C
:1033D000E705892B8A2B8B2B21F08091E5058E7FC9
:1033E00011F40E94B2190E9481180895E4EEF5E0EC
:1033F000880F90819170982B90836091E405709173
:10340000E5058091E6059091E7050E94D40D0895A9
:103410008091E40586958F5F0E94F619089580914A
:10342000E405869581500E94F61908958093E6057B
:103430006091E4057091E5058091E6059091E705BE
:103440000E94D40D089591E0811101C090E0809117
:10345000E50590FB80F98093E5056091E4057091A6
:10346000E5058091E6059091E7050E94D40D089549
:10347000E5EEF5E09081892F8095817080FB90F9D1
:1034800090830E94231A0895E5EEF5E0880F90815D
:103490009170982B90836091E4057091E50580917F
:1034A000E6059091E7050E94D40D0895CF93DF9330
:1034B000C091E505C695C43658F4D0E021968C2F0E
:1034C0000E9407188C2F0E94441ADF91CF91089513
:1034D000C4E0D0E0F4CFCF93DF93C091E505C6956B
:1034E000C53058F0C150DD0B8C2F0E9407188C2F6F
:1034F0000E94441ADF91CF910895C4E6D0E0F4CF42
:103500008091E405817008958091E40580FF04C0F6
:103510008091E7058370089580E00895E7EEF5E077
:103520008081846080836091E4057091E5058091DD
:10353000E6059091E7050E94D40D0895E7EEF5E0C9
:1035400080818B7F80836091E4057091E505809197
:10355000E6059091E7050E94D40D08958091E70556
:1035600082FF03C00E949E1A08950E948E1A089539
:103570008091E605883720F4865F0E94161A089528
:1035800088E7FBCF8091E605843120F08A500E94C5
:10359000161A089584E1FBCF0E944D1808950E94E9
:1035A0008A180895CF93DF93EC01FB01858188236E
:1035B00009F4FAC09E0130572332310508F057C094
:1035C0000E94340D90936F0580936E05FE01E150CB
:1035D000F047E232F10520F4EE50F04D0C947B2ED2
:1035E00080916E05816080936E0538C080916F0573
:1035F000886080936F0532C080916E058260F3CF42
:1036000080916E058460EFCF80916E058860EBCF6E
:1036100080916F058160EDCF80916F058260E9CF69
:1036200080916E058061DFCF80916E058062DBCF77
:1036300080916E058064D7CF0E94990780916E05B6
:103640008068D1CF80916E058C6080936E0540E0DC
:1036500064E070E089EC91E00E94171580916E059E
:1036600090916F050E94390D0E94990780E0DF91CB
:10367000CF91089580916F05836080936F0540E03E
:1036800064E070E089E991E0E7CF80916E058E7F7C
:10369000AACF80916F05877FACCF80916E058D7F1B
:1036A000A2CF80916E058B7F9ECF80916E05877F24
:1036B0009ACF80916F058E7F9CCF80916F058D7F13
:1036C00098CF80916E058F7E8ECF80916E058F7D15
:1036D0008ACF80916E058F7B86CF0E94990780915B
:1036E0006E058F7780CF80916E05837F80936E0506
:1036F00040E062E070E089EE91E0AECF80916F052E
:103700008C7F80936F0540E062E070E089EB91E090
:10371000A3CF80916E0582FB992790F921E0922733
:1037200090FB82F990FB83F980936E0540E083FF64
:10373000E0CF8ECF80916F05982F909591708E7FFE
:10374000892B90FB81F980936F0540E081FFDCCFEE
:1037500097CF90916E05892F8F7B96FF806443CF22
:103760000E94990790916E05892F97FB87F98058E1
:103770003ACF81E00E94DB0D71CF80E0FBCF9091CA
:103780006E05892F8F7E94FF80612DCF90916E05FD
:10379000892F8E7F90FF816026CF90916F05892FB2
:1037A000877F93FF886025CF81E061CF282F35EB9D
:1037B0002303C001112497FF04C080589109892F69
:1037C000089580589F4FFBCF8091370580FF0DC033
:1037D0006091FE0170E0660F771F6038710570F52B
:1037E0006115710569F1862F089581FF07C0609109
:1037F000FE0184E0689FB0011124EFCF6091FE01CB
:1038000082FD0AC0809136058823A9F02091FD0130
:103810006091FE01821710F088E0ECCF869FC00116
:10382000112433E0880F991F3A95E1F7622F70E079
:103830000E94452ED2CF68E070E0D5CF8FE7089583
:1038400081E008958091370580FF0CC06091FA01F6
:1038500070E075956795759567956115710549F1E6
:10386000862F089581FF06C06091FA0170E075957A
:103870006795F3CF6091FA0182FD0BC090913505F9
:103880009923A1F06091F9018091FA01961738F01F
:10389000682F70E06038710500F38FE70895899F05
:1038A000C001112470E00E94452EF4CF61E070E069
:1038B000D7CF81E0089590913A0520913B05922B56
:1038C00020913D05922B20913C05922B31F098E000
:1038D0009093360591E0909335058D3C31F40E942C
:1038E000E41B819580933B0508958E3C19F40E945A
:1038F000E41BF8CF8F3C31F40E94E41B8195809348
:103900003A050895803D19F40E94E41BF8CF893DE3
:1039100029F40E94221C80933C0508958A3D21F4DD
:103920000E94221C8195F7CF8B3D31F40E94221C0E
:10393000819580933D0508958C3D19F40E94221CC9
:10394000F8CF9FE2980F983070F4815D990B21E0D9
:1039500030E001C0220F8A95EAF780913905822B69
:103960008093390508958D3D31F48091370581604C
:103970008093370508958E3D21F48091370582604C
:10398000F7CF8F3DB9F7809137058460F1CF409133
:103990003A058D3C59F480913B0587FF0DC010928C
:1039A0003B0541110BC01092360508C08E3C81F4D6
:1039B00080913B0518169CF3442381F080913C05CF
:1039C00090913D05892B09F05AC010923505089554
:1039D0008F3C49F447FFF0CF10923A0580913B05A8
:1039E0008111ECCFE0CF803D19F41416ACF3E4CF95
:1039F00090913C05893D29F41916F4F610923C0586
:103A0000DBCF8A3D19F497FFD7CFF8CF90913D05D2
:103A10008B3D29F497FFD0CF10923D05CDCF8C3D43
:103A200019F41916CCF3C8CF9FE2980F983090F490
:103A3000815D990B21E030E0B90102C0660F771F6C
:103A40008A95E2F7CB01809590913905892380937F
:103A50003905B2CF8D3D31F4809137058E7F80934B
:103A60003705AACF8E3D21F4809137058D7FF7CFA2
:103A70008F3D09F0A1CF809137058B7FF0CF08955E
:103A80000E94C1229C0190913A0580913B05982BA0
:103A900021F0309334052093330590913C058091BB
:103AA0003D05982B21F0309332052093310588E3B2
:103AB00095E00E942C21089586E0E8E3F5E0DF011F
:103AC0001D928A95E9F710923605109235051092ED
:103AD00037050895FC01828181110EC08381811117
:103AE0000BC08481811108C091E08581811101C0E2
:103AF00090E0892F8170089581E0FCCFA6E0B0E0CE
:103B0000E4E8FDE10C949F2E86E0E8E3F5E0DE01B9
:103B1000119601900D928A95E1F710923A05109254
:103B20003B0510923C0510923D058B819C81892BB1
:103B300089F080913305909134050E94D922AC011F
:103B4000909136059923C9F18091FF0184171506DC
:103B500008F440C08D819E81892B91F080913105C0
:103B6000909132050E94D922AC019091350599239C
:103B700009F46AC08091FB018417150608F472C02D
:103B8000BE016F5F7F4F88E395E00E94EF218111B6
:103B900005C088E395E00E946A1D81110E94401DC6
:103BA00086E0FE013196A8E3B5E001900D928A957A
:103BB000E1F72696E3E00C94BB2E209100028AE008
:103BC000289F900111242417350720F69F5F9093BA
:103BD000360502C09F3FD1F71B81112359F00E9487
:103BE000E41B9FEF11160CF491E0899F802D1124A6
:103BF00080933A051C81112359F00E94E41B9FEF2A
:103C000011160CF491E0899F802D112480933B05BF
:103C100080913A05882309F49DCF10913B0511232B
:103C200009F498CF0E94D61B882351F080933A055F
:103C3000812F0E94D61B882329F080933B058ACFD1
:103C400081E0F4CF81E0F9CF2091FC018AE0289F48
:103C5000900111242417350708F092CF9F5F9093AD
:103C6000350502C09F3FD1F71D81112359F00E94F5
:103C7000221C9FEF11160CF491E0899F802D1124D6
:103C800080933C051E81112359F00E94221C9FEF56
:103C900011160CF491E0899F802D112480933D052D
:103CA00080913C05882309F46BCF10913D051123C9
:103CB00009F466CF0E94D61B882351F080933C05FF
:103CC000812F0E94D61B882329F080933D0558CF71
:103CD00081E0F4CF81E0F9CF8091560581110E94F7
:103CE0000612089521E08F3F910508F020E0822F11
:103CF00008950E94721E08950E946C1E109256052F
:103D000040E068E070E081E892E00E9417150895B5
:103D10001092550540E068E070E081E092E00E947A
:103D2000171508950E946C1E2091A30330E02F5FA9
:103D30003F4F237033272093A30348E2429FC001E3
:103D4000439F900D112440E065E070E08F5F9C4F31
:103D50000E9417150895CF9380915205882309F486
:103D600042C080913E0590913F05009799F50E94D1
:103D7000C12290933F0580933E05E09140058091DC
:103D800041058150990BEE2321F02E2F2150330B4A
:103D9000C90120915605222389F0F0E0EE5BFA4F2D
:103DA000C0818E5B9A4FFC0180810E94011280913C
:103DB0005605882319F08C2F0E94FC118091400534
:103DC00090E001966091410570E00E94452E80933D
:103DD000400509C00E94D9222091A1033091A2037D
:103DE0002817390720F2CF910895089581E0809334
:103DF000560540E068E070E081EC92E00E94171503
:103E00000E94F51E0895089581E08093550540E0D5
:103E100068E070E081E492E00E9417150E94031FA1
:103E20000895EF92FF921F93CF93DF93CDB7DEB744
:103E3000A3970FB6F894DEBF0FBECDBF7C018039CB
:103E400044E79407A9F4DB0115968C91882309F4C3
:103E500058C00E94F61E80E0A3960FB6F894DEBF0D
:103E60000FBECDBFDF91CF911F91FF90EF900895CE
:103E70008139B4E79B0741F4FB018581882309F46C
:103E800040C00E947C1EE7CF8239F4E79F0751F4BF
:103E900080915605DB0115969C91992391F1811132
:103EA000F0CFD7CF8115B1E79B0739F4FB018581AE
:103EB000882339F10E94041FCECF8130F1E79F079C
:103EC00041F4DB0115968C918823D9F00E94881E5D
:103ED000C2CF8230B1E79B0749F4FB01858188237B
:103EE00081F0809155058111F1CFE4CF833994475A
:103EF00041F4DB0115968C91882319F00E94921EE3
:103F0000AACF20915605211105C08091550588231F
:103F100009F4DBC0FB013581332309F450C0F0EE16
:103F2000EF16F10461F40E946C1E81E08093540549
:103F30001092530510925205109241058CCF42EE1B
:103F4000E416F10471F40E946C1E809154058823DC
:103F500019F081E080935305109254051092520598
:103F60007ACF83EEE816F10491F48091530588230B
:103F700031F10E946C1E1092540581E0809352052D
:103F80001092400510923F0510923E0564CF92E5D5
:103F9000E916F10451F48091A1039091A2030A97CC
:103FA0009093A2038093A10356CFA1E5EA16F104F2
:103FB00031F48091A1039091A2030A96F1CF8091F0
:103FC000A3031091A603811111C013508091A40383
:103FD000180FFB018081180F41818FE090E0841B56
:103FE0009109FCE08F9F100D112414C0813071F5F0
:103FF000105E8091A403180FDB018C91180F1196AD
:104000004C918FE090E0841B9109982F990F990FA4
:10401000890F180F332309F451C0222319F0812F7F
:104020000E94FC1180915405882351F08091410534
:10403000E82FF0E0EE5BFA4F10838F5F809341052D
:10404000C7010E94791E91E0892706CF823071F462
:10405000105E8091A403180FFB018081180F41812D
:104060008FE090E0841B9109F7E0BCCF833091F69C
:1040700083E2E3EBF3E0DE01119601900D928A9565
:10408000E1F7DB01EC9181E090E08C0F9D1F8E0F3A
:10409000911DFC018091A4039091A503E80FF91FE5
:1040A00013508081180F11964C918FE090E0841B83
:1040B0009109ACE08A9F100D1124ACCF222309F4A2
:1040C000BFCF812F0E940112BBCF81E0C5CE0F93DD
:1040D0001F93CF93DF93C42FD22FFC0185818823B8
:1040E000C9F0409359050E94C122909358058093CE
:1040F000570580E28C0F883040F4C77081E001C022
:10410000880FCA95EAF70E944305DF91CF911F916E
:104110000F91089510915905141332C080915705DD
:10412000909158050E94D922883C910548F5C0E23B
:10413000CD0F1D17B9F080E2810F883040F4177061
:1041400081E001C0880F1A95EAF70E944A05C8303D
:1041500048F481E09D2F977001C0880F9A95EAF787
:104160000E944305802F0E943A05C83070F6D77030
:1041700081E001C0880FDA95EAF70E944A05C5CFB1
:1041800080E28C0F883008F6C77081E001C0880F8C
:10419000CA95EAF7F2CF0F93DB0188519C4787302D
:1041A0009105A0F5FC01EC5EFF4C0C947B2E06E221
:1041B00021EE41EE6AE17CE7CD010E94672080E0BC
:1041C0000F91089507E225EE45EE6BE17CE7F4CF11
:1041D00006E221EE40EE68E17CE7EECF07E225EE55
:1041E00044EE69E17CE7E8CF06E221EE42EE6CE1C5
:1041F0007CE7E2CF07E225EE46EE6DE17CE7DCCF1F
:1042000008E221E045EE6EE17CE7D6CF15968C9171
:10421000882319F010925905D3CF81E0D1CF909324
:104220005F0580935E050895E0915E05F0915F055E
:10423000309729F00190F081E02D0995089580E0F4
:104240000895E0915E05F0915F05309721F00280BE
:10425000F381E02D09950895E0915E05F0915F05E9
:10426000309739F022E0DC012C930680F781E02DB5
:1042700009950895A3E0B0E0E0E4F1E20C94A02EEB
:1042800020915C0530915D0528173907A1F09093C6
:104290005D0580935C05E0915E05F0915F053097C8
:1042A00051F023E029839B838A830084F185E02DEC
:1042B000CE01019609952396E2E00C94BC2EA3E072
:1042C000B0E0E5E6F1E20C94A02E20915A05309181
:1042D0005B0528173907A1F090935B0580935A0579
:1042E000E0915E05F0915F05309751F024E029835D
:1042F0009B838A830084F185E02DCE010196099588
:104300002396E2E00C94BC2E40911C0150911D01BB
:104310009A012E5F3F4F485F5F4F80E024173507BB
:1043200009F40895F90191919F019923B9F38F5FE1
:10433000F5CF882371F020911C0130911D01F90106
:104340003296285F3F4F9191981729F0E217F307B3
:10435000D1F780E0089581E008959C01FC01329638
:104360009FEF80E04191461751F09F3F19F44111B2
:1043700001C0982F8F5F8630A9F79F3F09F40895F9
:10438000290F311D97FD3A95F90162830895FC01CB
:10439000329608962191261303C0DF0111971C92D3
:1043A000E817F907B9F70895682F80911C019091DB
:1043B0001D010E94AD210895682F80911C019091EC
:1043C0001D010E94C7210895E0911C01F0911D017B
:1043D000329686E0DF011D928A95E9F70895DC01A7
:1043E000FB0111969C9111978181981322C012961E
:1043F0008C911297882319F0928189131AC0139611
:104400008C911397882319F09381891312C0159604
:104410008C911597882319F0958189130AC01496F9
:104420009C91992321F081E02481291303C080E02D
:1044300001C081E08170089508950E941C220895B2
:10444000811106C081E0809360050E941D220895BD
:1044500082E0F9CF83E0809360050E941D220895D9
:104460000E942022089581E0809360050E941D2211
:1044700008950E9433220895089508950E943D22D0
:104480000895089508950E943C220895CF930E94B4
:1044900041220E9434110E944222C0E08C2F0E94CF
:1044A0001B11811105C0CF5FCF30C1F7CF910895A7
:1044B00081E0FCCF85B7806885BF85B7806885BF00
:1044C00008951F921FB61F9211248F939F93AF934D
:1044D000BF9380916105811113C08091E80590918F
:1044E000E905A091EA05B091EB054196A11DB11D2A
:1044F0008093E8059093E905A093EA05B093EB0556
:10450000BF91AF919F918F911F901FBE1F901895E3
:104510008091F005843031F10E940304109261050E
:1045200088E190E020E40FB6F894A89580936000AD
:104530000FBE2093600083B7817F846083BF83B701
:10454000816083BF7894889583B78E7F83BF0FB6D1
:10455000F894A89580916000886180936000109223
:1045600060000FBE08950E9499070E940A040895F2
:1045700082E084BD93E095BD9AEF97BD80936E0075
:1045800008952FB7F8948091E8059091E905A091DE
:10459000EA05B091EB052FBF08952FB7F89460910D
:1045A000E8057091E9058091EA059091EB052FBF30
:1045B00008959C014FB7F8948091E8059091E90522
:1045C000A091EA05B091EB054FBF821B930B0895B4
:1045D00078941F921FB61F9211248F939F93AF93CD
:1045E000BF938091E8059091E905A091EA05B0910B
:1045F000EB050196A11DB11D8093E8059093E90597
:10460000A093EA05B093EB05BF91AF919F918F9175
:104610001F901FBE1F90189587E797E7909301089A
:104620008093000888E19AE00FB6F894A8958093EB
:1046300060000FBE90936000FFCF88E19AE00FB654
:10464000F894A895809360000FBE90936000FFCF10
:10465000289A219A229A80B380BB81B381BB80E5DE
:104660008CBD08959091A7039F3F09F071C08F3FC3
:1046700009F46EC0611144C0109263059091630506
:10468000423009F441C0433009F442C094604130E3
:10469000E1F141E050E042175307E0F190916305EA
:1046A0004031510509F452C0C0F54230510509F4BA
:1046B00046C04830510509F446C09CB520916305B9
:1046C000922B9CBD90916205992319F09DB5916044
:1046D0009DBD8093A703E82FE295EF70F0E031A134
:1046E000282F2F7081E090E001C0880F2A95EAF70B
:1046F000382B31A392A18095892382A381E008956C
:1047000090E290936305BACF986090936305C1CF10
:104710009C60FBCF440F551FBECF4034510549F07C
:104720004038510541F04032510539F621E02093DF
:104730006205926001C0936090936305BECF91E0E3
:1047400090936205BACF21E0209362059160F4CF87
:1047500080E00895CF93DF938EBD0E94C122EC01CB
:104760000DB407FE05C08EB590E0DF91CF9108959E
:104770000E94C1228C1B9D0B8436910588F38EEF1D
:104780009FEFF3CF0F931F93CF93DF93EC018C0137
:10479000060F171FC017D10719F490E080E005C07D
:1047A00089910E94AA2397FFF5CFDF91CF911F91A6
:1047B0000F9108958091A7038F3F29F1E82FE2958B
:1047C000EF70F0E041A18F7021E030E0B90102C04C
:1047D000660F771F8A95E2F7CB01942F982B91A350
:1047E00092A1892B82A38FEF8093A7038DB58E7F33
:1047F0008DBD9CB580916305809589238CBD1092F9
:10480000630510926205089580916C0508950895DE
:104810009B01BA019091F0059430E9F48F70809378
:10482000E9009FEF8091E800915085FD06C085ED7D
:104830008A95F1F700009111F5CF8091E80085FF8E
:104840000AC050E040E0C9010E9402268091E800C1
:104850008E778093E800089543E050E0BC0182E049
:104860000E940824089546E050E0BC0182E00E94C6
:1048700008240895CF93DF93EC0148E050E0BC0199
:1048800081E00E94082488E0FE01A4E6B5E00190E2
:104890000D928A95E1F7DF91CF9108958091EF0510
:1048A000811109C00E9492270E94EF278091E200A7
:1048B00084608093E20008951092EF0508950E94AD
:1048C000332208956091EC0581E0611101C080E020
:1048D0000E942A2208959091F00581E0943009F019
:1048E00080E06091EC050E943022089542E061EC86
:1048F00081E00E940E2742E261EC82E00E940E27D6
:104900009091F00581E0943009F080E06091EC0531
:104910000E94202208958091F205833009F461C03D
:1049200030F48130D1F1823009F49EC008958A308C
:1049300009F48AC08B3009F46FC0893009F050C087
:104940008091F105813209F04BC08091F50590917D
:10495000F605029708F044C08091E800877F8093B5
:10496000E8008091E80082FF37C09091F3008091C9
:10497000F200029731F48091F100813011F086301D
:1049800021F48091F10080936C058091E8008B7791
:104990008093E8000E94422723C08091F105813A6C
:1049A000F9F48091E800877F8093E8008091F50515
:1049B0009091F605892B61F468E084E695E070E05B
:1049C0000E9451268091E8008B778093E80008953B
:1049D00060E090E080E0F3CF8091F0058111C1CFDD
:1049E00008958091F105813AD9F78091F50590916C
:1049F000F605892BA9F78091E800877F8093E8006E
:104A00008091E80080FFFCCF8091B2038093F10099
:104A10008091E8008E77BCCF8091F105813201F75B
:104A20008091F5059091F605892BD1F68091E800EB
:104A3000877F8093E8000E9442278091F30580934E
:104A4000B2030E94990708958091F105813241F6E1
:104A50008091E800877F8093E8000E944227809140
:104A6000F40580936D0508958091F105813A09F070
:104A7000B7CF8091E800877F8093E8008091E800BD
:104A800080FFFCCF80916D05C1CF84B7877F84BF45
:104A90000FB6F894A89580916000886180936000BB
:104AA000109260000FBE80E890E00FB6F8948093FB
:104AB0006100909361000FBE0E94392208950E9408
:104AC00092270E94EF27E2EEF0E0808184608083ED
:104AD00078940E946E2A089588EA93E00E940F213C
:104AE00008958091F005853031F48091F00585308E
:104AF00019F00E94B32208950E9488228091EE0549
:104B0000882399F30E944622882379F30E94EC259A
:104B10000E949907EACF08959A014091F7055091B4
:104B2000F8050E9494250895492F552743305105D3
:104B300019F168F44130510509F444C0423051057F
:104B400009F445C090E080E050E040E025C04132EB
:104B5000510549F142325105A9F784E490E046EC51
:104B600053E061157105C1F08BE790E04BE453E031
:104B70006130710589F0E6CF99278130910581F088
:104B8000009729F00297F1F6E2EDF2E002C0EAEFB9
:104B9000F2E0849190E0AF01F901518340830895E0
:104BA000E8EEF2E0F6CF89E090E040E153E06115F5
:104BB000710591F389E090E049E253E061307105BD
:104BC00059F3C0CF82E190E049E353E0E5CF8BE3B6
:104BD00090E04EEF52E0E0CF80E189BD82E189BDF7
:104BE00009B400FEFDCF8091D8008F7D8093D8005E
:104BF0008091E00082608093E0008091E00081FD80
:104C0000FCCF0895AF92BF92CF92DF92FF920F93A5
:104C10001F93CF93DF936C01EB018A010E94612700
:104C2000F82E811123C00115110539F0F80180819A
:104C30009181C81BD90BC80ED91EB12CA12C20976D
:104C4000A9F08091E80085FD22C08091E8008E7770
:104C50008093E80001151105A1F0F8018081918190
:104C6000A80EB91EB182A08285E0F82E8F2DDF91AB
:104C7000CF911F910F91FF90DF90CF90BF90AF9099
:104C800008950E9461278823D1F2F82EEFCFF60114
:104C900081916F018093F1002197FFEFAF1ABF0A56
:104CA000CECFFC018091F7059091F8058617970704
:104CB000A0F06115710529F49091E8009E7790931A
:104CC000E80090E06115710551F4911108C08091E0
:104CD000E80082FF34C080E00895BC01F2CF8091EB
:104CE000F0058823C1F18530C1F18091E80083FD92
:104CF00030C08091E80082FDEACF8091E80080FF1B
:104D0000E1CF8091F3002091F200382F61157105F9
:104D100019F02830310558F091E02830310509F0BC
:104D200090E02091E8002E772093E800CBCF81918E
:104D30008093F100615071092F5F3F4FE7CF809161
:104D4000F005882341F0853041F08091E80083FF31
:104D5000BECF81E0089582E0089583E00895FC01CC
:104D60008091F7059091F80586179707A0F06115D7
:104D7000710529F48091E8008E778093E80090E037
:104D80006115710551F4911108C08091E80082FF0E
:104D900035C080E00895BC01F2CF8091F0058823F2
:104DA000C9F18530C9F18091E80083FD31C080915F
:104DB000E80082FDEACF8091E80080FFE1CF80919A
:104DC000F3002091F200382F6115710519F0283099
:104DD000310558F091E02830310509F090E08091DC
:104DE000E8008E778093E800CBCF84918093F10028
:104DF0003196615071092F5F3F4FE6CF8091F005EA
:104E0000882341F0853041F08091E80083FFBDCFD9
:104E100081E0089582E0089583E00895982F973007
:104E200028F08F708093E90081E008959093E90065
:104E3000242F762F50E0981731F07091EC002091DC
:104E4000ED005091F00021FD02C09F5FE8CF30914E
:104E5000EB003E7F3093EB003091ED003D7F3093CF
:104E6000ED003091EB0031603093EB007093EC007B
:104E70002093ED005093F0002091EE0027FDE5CF48
:104E800080E008958091F10587FF13C08091E800CC
:104E900082FF06C08091E8008B778093E80004C011
:104EA0008091F0058111F2CF08958091F00588235B
:104EB000D9F38091E80080FFF8CF8091E8008E77E9
:104EC000ECCF2091E4003091E50095E6A901209116
:104ED000EC00822F817020FF06C08091E80080FFE7
:104EE00006C080E008952091E80022FD1AC080915C
:104EF000F005882389F0853089F08091EB0085FDED
:104F00000FC02091E4003091E50042175307F9F2F9
:104F10009150E1F684E0089582E0089583E00895D9
:104F200081E008950E9401280E940928E0EEF0E047
:104F3000808181608083E8EDF0E080818F778083DD
:104F400019BCA7EDB0E08C918E7F8C9380818F7E11
:104F500080831092EF0508950F931F93CF93DF93F3
:104F60000E9401280E940928C8EDD0E088818F772F
:104F7000888388818068888388818F7D888319BC35
:104F80001092F0051092EC051092EE051092ED05CE
:104F900000EE10E0F80180818B7F80838881816042
:104FA000888342E060E080E00E940E27E1EEF0E0BE
:104FB00080818E7F8083E2EEF0E08081816080835B
:104FC000808188608083F80180818E7F80838881E2
:104FD00080618883DF91CF911F910F910895E8ED53
:104FE000F0E080818F7E8083E7EDF0E0808181605A
:104FF000808384E082BF81E08093EF050E94AC272C
:105000000895E8EDF0E080818E7F80831092E200C9
:1050100008951092DA001092E10008951F920F9205
:105020000FB60F9211242F933F934F935F936F937B
:105030007F938F939F93AF93BF93EF93FF93809151
:10504000E10082FF0BC08091E20082FF07C08091E7
:10505000E1008B7F8093E1000E946D2A8091DA004D
:1050600080FF19C08091D80080FF15C08091DA00C0
:105070008E7F8093DA008091D90080FF96C080E116
:1050800089BD82E189BD09B400FEFDCF81E0809336
:10509000F0050E944E248091E10080FF19C08091AC
:1050A000E20080FF15C08091E2008E7F8093E200D5
:1050B0008091E20080618093E2008091D80080625C
:1050C0008093D80019BC85E08093F0050E9462248B
:1050D0008091E10084FF2BC08091E20084FF27C013
:1050E00080E189BD82E189BD89B5982F917080FFEB
:1050F000FBCF8091D8008F7D8093D8008091E10014
:105100008F7E8093E1008091E2008F7E8093E200A9
:105110008091E20081608093E2008091EC05882319
:1051200009F449C084E08093F0050E946B248091CB
:10513000E10083FF29C08091E20083FF25C08091B8
:10514000E100877F8093E10082E08093F005109278
:10515000EC058091E1008E7F8093E1008091E20078
:105160008E7F8093E2008091E20080618093E20074
:1051700042E060E080E00E940E278091F0008860AD
:105180008093F0000E945F24FF91EF91BF91AF9157
:105190009F918F917F916F915F914F913F912F914F
:1051A0000F900FBE0F901F90189519BC1092F0052C
:1051B0000E945C2470CF8091E30087FD93E0909380
:1051C000F005B3CF1F920F920FB60F9211242F93B9
:1051D0003F934F935F936F937F938F939F93AF937F
:1051E000BF93CF93DF93EF93FF93D091E900DF70EC
:1051F0008091EC00C82FC17080FDC0E81092E900DA
:105200008091F000877F8093F00078940E94262997
:105210001092E9008091F00088608093F000CD2B1F
:10522000CF70C093E900FF91EF91DF91CF91BF91D3
:10523000AF919F918F917F916F915F914F913F912E
:105240002F910F900FBE0F901F901895AAE2B0E01B
:10525000ECE2F9E20C949F2E81EF95E02091F100B1
:10526000FC012193CF01F5E0893F9F07B9F70E9428
:105270008B248091E80083FF1EC18091F1059091FD
:10528000F2059A3008F017C1E92FF0E0E55EFF4C17
:105290000C947B2E803899F0823809F00CC18091F3
:1052A000F5058F70873008F006C18093E900809182
:1052B000EB0085FB882780F91092E90006C08091F9
:1052C000ED059091EE05911182609091E800977F35
:1052D0009093E8008093F1001092F1008091E80033
:1052E0008E77E5C0882309F4D3C0823009F0E3C08B
:1052F0008091F3058111D6C08091F5058F702FEF55
:10530000280F263008F0D7C08093E9002091EB00E9
:1053100020FFC8C0933031F48091EB00806280930D
:10532000EB00C0C09091EB0090619093EB0021E006
:1053300030E001C0220F8A95EAF72093EA0010922C
:10534000EA008091EB008860EACF8111B4C010912F
:10535000F3051F778091E3008078812B8093E30031
:105360008091E800877F8093E8000E944227809127
:10537000E80080FFFCCF8091E30080688093E30029
:1053800082E0111183E08093F00595C0805882304F
:1053900008F091C08091F3059091F4058C3D23E0D5
:1053A0009207A1F583E08A838AE289834FB7F89454
:1053B000DE01139620E03EE051E2E32FF0E050934F
:1053C0005700E49120FF03C0E295EF703F5FEF705C
:1053D0008E2F90E0EA30C0F0C7968D939D932F5F9B
:1053E000243159F74FBF8091E800877F8093E80010
:1053F0006AE270E0CE0101960E9451268091E80099
:105400008B778093E80057C0C096E7CF6091F50591
:105410007091F605AE014F5F5F4F0E948C25BC0175
:10542000892B09F448C09091E800977F9093E80099
:1054300089819A810E94AF26E1CF8038E1F5809181
:10544000E800877F8093E8008091EC058093F1006D
:1054500045CF811130C09091F305923060F5809175
:10546000E800877F8093E8009093EC050E94422734
:105470008091EC05882311F084E005C08091E30061
:1054800087FDFACF81E08093F0050E94762413C057
:105490008091F305813079F481E0933009F080E068
:1054A0008093EE051092E9008091E800877F809359
:1054B000E8000E9442278091E80083FF0AC08091A3
:1054C000E800877F8093E8008091EB008062809302
:1054D000EB00AA96E3E00C94BB2E0895CF93809145
:1054E000F0058823A1F0C091E900CF709091EC0005
:1054F000892F817090FD80E8C82B1092E90080917F
:10550000E80083FD0E942629CF70C093E900CF9167
:1055100008955058BB27AA270E94A12A0C94142C46
:105520000E94062C38F00E940D2C20F039F49F3F89
:1055300019F426F40C94032C0EF4E095E7FB0C947C
:10554000FD2BE92F0E94252C58F3BA176207730729
:105550008407950720F079F4A6F50C94472C0EF4F7
:10556000E0950B2EBA2FA02D0B01B90190010C0173
:10557000CA01A0011124FF27591B99F0593F50F48B
:10558000503E68F11A16F040A22F232F342F4427E3
:10559000585FF3CF469537952795A795F0405395DB
:1055A000C9F77EF41F16BA0B620B730B840BBAF0AB
:1055B0009150A1F0FF0FBB1F661F771F881FC2F716
:1055C0000EC0BA0F621F731F841F48F4879577952A
:1055D0006795B795F7959E3F08F0B0CF9395880FE4
:1055E00008F09927EE0F9795879508950E94D92B7B
:1055F00008F481E008950E940F2B0C94142C0E9453
:105600000D2C58F00E94062C40F029F45F3F29F041
:105610000C94FD2B51110C94482C0C94032C0E94DB
:10562000252C68F39923B1F3552391F3951B550B62
:10563000BB27AA2762177307840738F09F5F5F4F65
:10564000220F331F441FAA1FA9F335D00E2E3AF0A4
:10565000E0E832D091505040E695001CCAF72BD0BC
:10566000FE2F29D0660F771F881FBB1F261737070D
:105670004807AB07B0E809F0BB0B802DBF01FF273F
:1056800093585F4F3AF09E3F510578F00C94FD2BF4
:105690000C94482C5F3FE4F3983ED4F386957795BD
:1056A0006795B795F7959F5FC9F7880F911D9695F8
:1056B000879597F90895E1E0660F771F881FBB1F54
:1056C000621773078407BA0720F0621B730B840B01
:1056D000BA0BEE1F88F7E09508950E942D2C88F0F4
:1056E0009F5798F0B92F9927B751B0F0E1F0660FA6
:1056F000771F881F991F1AF0BA95C9F714C0B130E7
:1057000091F00E94472CB1E008950C94472C672F2C
:10571000782F8827B85F39F0B93FCCF38695779515
:105720006795B395D9F73EF49095809570956195FE
:105730007F4F8F4F9F4F0895E89409C097FB3EF429
:1057400090958095709561957F4F8F4F9F4F9923CE
:10575000A9F0F92F96E9BB279395F695879577954C
:105760006795B795F111F8CFFAF4BB0F11F460FF0C
:105770001BC06F5F7F4F8F4F9F4F16C0882311F064
:1057800096E911C0772321F09EE8872F762F05C078
:10579000662371F096E8862F70E060E02AF09A9513
:1057A000660F771F881FDAF7880F9695879597F908
:1057B0000895990F0008550FAA0BE0E8FEEF1616A2
:1057C0001706E807F907C0F012161306E407F507F5
:1057D00098F0621B730B840B950B39F40A2661F069
:1057E000232B242B252B21F408950A2609F4A1400C
:1057F000A6958FEF811D811D089597F99F6780E819
:1058000070E060E008959FEF80EC089500240A9412
:105810001616170618060906089500240A9412168B
:105820001306140605060895092E0394000C11F4BE
:10583000882352F0BB0F40F4BF2B11F460FF04C06B
:105840006F5F7F4F8F4F9F4F089557FD9058440FC4
:10585000551F59F05F3F71F04795880F97FB991FCF
:1058600061F09F3F79F0879508951216130614068C
:10587000551FF2CF4695F1DF08C016161706180619
:10588000991FF1CF86957105610508940895E894F4
:10589000BB2766277727CB0197F908950E94D92B5C
:1058A00008F48FEF08950E94662C0C94142C0E942B
:1058B000062C38F00E940D2C20F0952311F00C944A
:1058C000FD2B0C94032C11240C94482C0E94252CA5
:1058D00070F3959FC1F3950F50E0551F629FF00143
:1058E000729FBB27F00DB11D639FAA27F00DB11D5C
:1058F000AA1F649F6627B00DA11D661F829F2227E5
:10590000B00DA11D621F739FB00DA11D621F839F6B
:10591000A00D611D221F749F3327A00D611D231F41
:10592000849F600D211D822F762F6A2F11249F578F
:1059300050409AF0F1F088234AF0EE0FFF1FBB1F92
:10594000661F771F881F91505040A9F79E3F510551
:1059500080F00C94FD2B0C94482C5F3FE4F3983EB0
:10596000D4F3869577956795B795F795E7959F5FFB
:10597000C1F7FE2B880F911D9695879597F908958D
:10598000FA01EE0FFF1F309621053105A1F16115D7
:10599000710561F48038BFE39B0749F16894903842
:1059A000810561F08038BFEF9B0741F099234AF5EC
:1059B000FF3FE1053105210519F1E8940894E795C9
:1059C000D901AA2329F4AB2FBE2FF85FD0F310C062
:1059D000FF5F70F4A695E0F7F73950F019F0FF3A41
:1059E00038F49F779F930DD00F9007FC905808953F
:1059F00046F00C94032C60E070E080E89FE308958B
:105A00004FE79F775F934F933F932F930E94BB2D58
:105A10002F913F914F915F910E94532C0C94182D20
:105A200029F416F00C94FD2B0C94472C0C94032CA9
:105A30000E942D2CA8F39638A0F707F80F92E8944F
:105A40002BE33AEA48EB5FE70E94692C0F920F9232
:105A50000F924DB75EB70F920E94032EECEAF0E072
:105A60000E944A2D4F915F91EF91FF91E595EE1FB6
:105A7000FF1F49F0FE57E0684427EE0F441FFA95D8
:105A8000E1F74195550B0E947D2D0F9007FE0C9478
:105A9000712D0895DF93CF931F930F93FF92EF9291
:105AA000DF927B018C01689406C0DA2EEF010E9420
:105AB000662CFE01E894A59125913591459155916B
:105AC000A6F3EF010E94A12AFE019701A801DA9432
:105AD00069F7DF90EF90FF900F911F91CF91DF91C9
