:100000000C9483030C94A0030C94A0030C94A00301
:100010000C94A0030C94A0030C94A0030C94A003D4
:100020000C94A0030C94A0030C94EC0E0C94931667
:100030000C9464260C94A0030C94A0030C94A003CD
:100040000C94A0030C94A0030C94A0030C948B2696
:100050000C94A0030C94C50F0C94A0030C94A00363
:100060000C94A0030C94A0030C94A0030C94A00384
:100070000C94A0030C94A0030C94A0030C94A00374
:100080000C94A0030C94A0030C94A0030C94A00364
:100090000C94A0030C94A0030C94A0030C94A00354
:1000A0000C94A0030C94A0030C94A00307634236A5
:1000B000B79BD8A71A39685618AEBAAB558C1D3CF9
:1000C000B7CC5763BD6DEDFD753EF6177231BF00BD
:1000D0000000803F08000000BE922449123EABAAF7
:1000E000AA2ABECDCCCC4C3E00000080BEABAAAA52
:1000F000AA3E00000000BF000000803F000000009A
:1001000000084178D3BB4387D1133D190E3CC3BDD2
:100110004282AD2B3E68EC8276BED98FE1A93E4C7F
:1001200080EFFFBE01C4FF7F3F000000000005011B
:100130000902A10185020901A10005091901290887
:100140001500250195087501810205010930093165
:100150001581257F95027508810609381581257F4F
:10016000950175088106050C0A38021581257F95D1
:100170000175088106C0C005010980A10185031928
:10018000012AB700150126B700950175108100C03E
:10019000050C0901A101850419012AA002150126F7
:1001A000A002950175108100C00660FF0961A101E0
:1001B0000962150026FF0095207508810209631564
:1001C0000026FF00952075089102C005010906A1CF
:1001D00001050719E029E71500250195087501813A
:1001E000029501750881010507190029FF150026F0
:1001F000FF009506750881000508190129051500FD
:100200002501950575019102950175039101C0FDC8
:10021000377A585A000004E6D6B446020021011687
:10022000000000742FE5A3E0088601AC5D003D8866
:1002300089A654750A36E182AEFA7A1AA6FCA2EDB6
:100240004946D8D4D27EB7AE4A6EA7756B88943A29
:100250003EA540C35436DFB0FB74B9AA89E07B4F9A
:10026000F38CCD34C4BD89315AB115510A704F1D7C
:100270005EB5FDD29D8B78AA1AC541A7E9BA54FC98
:1002800029EACFD31A59E53F4F4BF884F713478833
:100290005AAE83339C9870AE2EF6E529CC8A4F284F
:1002A000C3C140A4EF05C503965C5BA48826158BEB
:1002B0007671108F0B9A2D0A4B6089E0532E55BC36
:1002C000D2D174232CCABAA4B731BFE08641FB5502
:1002D000D092ABAEC19A7FDF77196C529A8832DE2A
:1002E000B95B8389992F85F95D12DBA56CC619CF9F
:1002F000AC370AD417C58C15ED244C8D8E8F973AE8
:10030000086F2BBB33EF7D7A13F0268FF7A205A47D
:1003100078746EADC099BF74F3FA458B25B183CF65
:10032000E3561CE4E52D71302592C53FEA976279CA
:10033000D0C2F406FD6F61E684EAB3BB4557CD46F3
:1003400093F7CCDBA89ECAE7E26833D692DC14AA06
:10035000A3080857CD8B63114EC5EB61E96E95B9C3
:10036000C1C326D2984F02D0F3082DA94781AE54BD
:1003700098AA86BAD57A676E3F42950014ABE247D9
:100380007B60C2CD1B307D558074E5DAD5B8CAAC30
:10039000CD85AC2F122EE52ED237B49E513CD7BE60
:1003A000578E83764F15FA8551968C514242A6DAC4
:1003B0002D29F3E8F76F35E024D04FCD22E88C21CA
:1003C000CA72CFF780994A92D29969C4046CA4008A
:1003D0000460E88FF5CB9ADA92590085896E09EEB0
:1003E000DEA1A60001C8038711000011752414B115
:1003F000C467FB020000000004595A2E002B00398C
:1004000000E1000000000004001E00140004001DB4
:10041000003500000005001F001A0016001B0049EF
:10042000004D000600200008000700060050004AAA
:10043000002A002100150009001900000000004CEE
:1004400000220017000A0005004F00E200E0002330
:10045000001C000B00110052002C004E002400185C
:10046000000D00100000002800000025000C000E08
:100470000036005100E4004B00260012000F003748
:10048000002F000000E70027001300330038003081
:1004900000000000002D0031003400E500000000E5
:1004A00000000029003C003F0042004500480000D9
:1004B000003A003D00400043004600215200003B4E
:1004C000003E00410044004700615200000100016D
:1004D0000001000100000000000100010001000116
:1004E0000001000100000001000100010001000105
:1004F00000010001000100010001000100010001F4
:1005000000010001000100010001000100000000E5
:1005100000010001000100010001000100010001D3
:1005200000010001000100010052006200010053BF
:10053000005F005C005900000001000000670060DF
:10054000005D005A00510001000100540061005E8E
:10055000005B006300000001005500560057005882
:10056000005800000000000100010001000100002F
:100570000000000000017C01000100827401000104
:10058000000000007C01000100427C01000100002D
:10059000000100010001000100010001000000094C
:1005A000025B00030100A0FA09040000010301013D
:1005B0000009211101000122440007058103080000
:1005C00001090401000203000000092111010001DA
:1005D00022220007058203200001070503032000F3
:1005E00001090402000103000000092111010001BA
:1005F000227B000705840320000112010002000095
:1006000000089EDC5C340001010203011C0376003B
:10061000690061006C003A00660036003400630037
:1006200032006200330063000000140350006900D0
:100630006C006C007A0020004D006F006400000028
:1006400010036400630070006500640069007400BA
:100650000000040309040000000000000000000086
:10066000000000000000000000000000000000008A
:10067000000000000000000000007E0F00D4FFFF1B
:10068000FFC70000007800000000000000002A2BD7
:100690002800000000000000000000000000000032
:1006A0000029000000002C1E34202122243426279B
:1006B000252E362D3738271E1F20212223242526BC
:1006C0003333362E37381F0405060708090A0B0C8A
:1006D0000D0E0F101112131415161718191A1B1CD2
:1006E0001D2F3130232D350405060708090A0B0C90
:1006F0000D0E0F101112131415161718191A1B1CB2
:100700001D2F3130354C11241FBECFEFDAE0DEBF94
:10071000CDBF14E0A0E0B1E0E0EFF9E602C0059043
:100720000D92A632B107D9F726E0A6E2B4E001C0E7
:100730001D92AE32B207E1F70E942F280C949C3430
:100740000C940000CF92DF92EF92FF92E0912B0683
:10075000EE2309F1E15088E0E802F0011124E551AF
:10076000FA4FC280D380E480F58020E030E0A90118
:10077000C701B6010E944D3118166CF48091EA054C
:10078000811102C01092E905C701B601FF90EF90F8
:10079000DF90CF900895C12CD12C7601F5CF482F52
:1007A0002091D50590919C0557E0291302C080E067
:1007B000089530E0529FF001539FF00D1124E3564D
:1007C000FA4F8181681306C08081481303C0858178
:1007D0008111EECF2F5F3F4F2770E7CFE8EDF0E0BC
:1007E00080818E7F80831092E2001092DA00109256
:1007F000E100A0EEB0E08C9181608C9380818F77D6
:10080000808319BCA7EDB0E08C918E7F8C938081A2
:100810008F7E808310927C0508952091E4003091B2
:10082000E50095E6A9012091EC00822F817020FF60
:1008300006C08091E80080FF06C080E00895209106
:10084000E80022FD1AC080918905882389F085304F
:1008500089F08091EB0085FD0FC02091E40030917C
:10086000E50042175307F9F29150E1F684E008954C
:1008700082E0089583E0089581E0089580918B05DA
:1008800087FF13C08091E80082FF06C08091E800D6
:100890008B778093E80004C0809189058111F2CFA5
:1008A0000895809189058823D9F38091E80080FF1D
:1008B000F8CF8091E8008E77ECCF982F9093E900E5
:1008C000242F762F50E0891731F07091EC002091A1
:1008D000ED005091F00021FD07C09F5F973071F748
:1008E0008093E90081E008953091EB003E7F3093E2
:1008F000EB003091ED003D7F3093ED003091EB0047
:1009000031603093EB007093EC002093ED00509336
:10091000F0002091EE0027FDE0CF80E00895B0E0E8
:10092000A0E0E5E9F4E00C94532FC8EDD0E0888115
:100930008F7E8883E7EDF0E080818160808384E0B2
:1009400082BF81E080937C0588818E7F888302EE60
:1009500010E0F80110821092DA0081EEC82ED12C3E
:10096000F601108288818F778883888180688883E8
:1009700088818F7D888319BC1092890510928A0521
:10098000109288051092870590EEE92EF12CF70160
:1009900080818B7F808388818160888342E060E0F2
:1009A00080E00E945D04F60180818E7F8083F801E3
:1009B000808181608083808188608083F70180816D
:1009C0008E7F8083888180618883CDB7DEB7E8E041
:1009D0000C946F2FFC0180919105909192058617E0
:1009E0009707A0F06115710529F49091E8009E77B2
:1009F0009093E80090E06115710551F4911108C0E1
:100A00008091E80082FF34C080E00895BC01F2CFFD
:100A1000809189058823C1F18530C1F18091E8007A
:100A200083FD30C08091E80082FDEACF8091E8002C
:100A300080FFE1CF8091F3002091F200382F611503
:100A4000710519F02830310558F091E02830310552
:100A500009F090E02091E8002E772093E800CBCFBA
:100A600081918093F100615071092F5F3F4FE7CF73
:100A700080918905882341F0853041F08091E8001C
:100A800083FFBECF81E0089582E0089583E008955A
:100A9000089580917E05089587E797E79093010870
:100AA0008093000888E19AE00FB6F894A8958093A7
:100AB00060000FBE90936000FFCF9C014FB7F89489
:100AC0008091780590917905A0917A05B0917B0588
:100AD0004FBF821B930B08952FB7F8946091780550
:100AE0007091790580917A0590917B052FBF0895CB
:100AF000EAE2F4E09191891303C0DF0111971C929F
:100B000094E0E033F907B1F708959C01FC013296B7
:100B10009FEF80E04191461751F09F3F19F441113A
:100B200001C0982F8F5F8630A9F79F3F09F4089581
:100B3000290F311D97FD3A95F90162830895A3E0CD
:100B4000B0E0E5EAF5E00C94592F2091750530915D
:100B5000760528173907A1F09093760580937505DF
:100B6000E0917305F0917405309751F024E02983EA
:100B70009B838A830084F185E02DCE01019609953F
:100B80002396E2E00C94752FA3E0B0E0EAECF5E0E8
:100B90000C94592F2091710530917205281739074F
:100BA000A1F09093720580937105E0917305F09127
:100BB0007405309751F023E029839B838A83008456
:100BC000F185E02DCE01019609952396E2E00C9483
:100BD000752FE0917305F0917405309729F001901D
:100BE000F081E02D0995089580E0089580916405D5
:100BF00080FD16C081FD16C082FD16C08091630580
:100C00008823A1F0883280F428E0829FC00111245B
:100C100068E270E00E94282F862F672B39F0089534
:100C200082E0089584E0089588E0089581E00895C1
:100C30008091640580FD14C081FD14C082FD16C042
:100C400080916205882381F08E3180F420E5829FB7
:100C5000C00111246EE170E00E94282F862F0895B4
:100C600084E1089588E2089588E0089580E5089574
:100C7000282F35EB2303C001112497FF04C08058AF
:100C80009109892F089580589F4FFBCFCF93DF9311
:100C9000EC014091570550915805609159057091AC
:100CA0005A052FB7F8948091780590917905A09115
:100CB0007A05B0917B052FBF841B950BA60BB70B54
:100CC000843F9140A105B10518F580915705909199
:100CD0005805A0915905B0915A05809353059093FA
:100CE0005405A0935505B093560584EF91E0A0E01C
:100CF000B0E080934F0590935005A0935105B093B9
:100D00005205D0935F05C0935E05DF91CF910895A2
:100D10000E946C05609353057093540580935505AC
:100D20009093560582E390E0A0E0B0E0E2CFFC01B2
:100D30008481862351F492819923B9F069238085B7
:100D400083FF05C081E061110FC080E00895892F05
:100D50008F7092959F70982B862F8F7062956F7011
:100D6000682B81E09613F1CF089581E0FDCF8115C6
:100D700022E5920778F48115E0E59E0718F5803E9C
:100D8000910530F0883E9105E8F081159042A8F475
:100D900081E012C0803222E59207D0F38034E2E590
:100DA0009E0780F0805C9245809790F7FB019681CA
:100DB000907F81E0903531F40895FB019681907F1A
:100DC00081E0D1F780E00895EFE6F0E08081877F51
:100DD0008083E0E8F0E08081837F80830895CF9274
:100DE000DF92EF92FF926B017C0120E030E0A901DD
:100DF0000E944D3181110AC080918000837F8093D1
:100E00008000FF90EF90DF90CF9008958091800058
:100E1000886080938000C092CC04D092CD04E09290
:100E2000CE04F092CF0420E030E040E051E4C7016E
:100E3000B6010E94AA329B01AC0160E074E284E733
:100E40009BE40E9452316B017C010E94C43170937B
:100E500087006093860020E030E048E452E4C70158
:100E6000B6010E94AA3220E030E048EC52E40E9431
:100E700052310E94C43170938D0060938C00C1CFB9
:100E80008091DE02811122C010922B060E94E4069E
:100E90001092E5051092E6051092DA051092D90538
:100EA000EBEEF5E080E090E0A0E8BFEB118210826D
:100EB00082839383A483B58317821682389626E0B3
:100EC000EB32F20799F781E08093DE02089580917A
:100ED0006F0581110E944007089580E00895909168
:100EE0008D0492FF10C041E0282F2471243009F0B6
:100EF00040E031E0282F2871283009F030E0431716
:100F000011F02CE0822793FF10C041E0282F2471BC
:100F1000243109F040E031E0282F2871283109F010
:100F200030E0431711F02CE0822730918E0430FF1F
:100F300010C051E0282F2171213009F050E041E02C
:100F4000282F2871283009F040E0541711F029E0CB
:100F5000822731FF10C041E0282F2171213109F093
:100F600040E031E0282F2871283109F030E04317A4
:100F700011F029E0822794FD877E0895823891053B
:100F8000B9F1B0F48133910509F47DC048F4893298
:100F9000910509F46DC08A32910509F47BC008956A
:100FA0008533910509F45FC08933910509F10895EE
:100FB000833E9105D9F138F4803E910529F1823EB6
:100FC000910579F10895863E9105D9F1873E910505
:100FD00009F43EC0843E910541F520918E0421FF25
:100FE00024C080918D0484FD19C087EE90E008959F
:100FF00020918D04237009F05AC020918E0423FFA4
:1010000014C089E290E0089520918D0420FD38C03D
:1010100030918E0430FF09C024FF43C090E080E08F
:10102000089520918D0422FDF7CF089520918D041D
:1010300022FD3AC030918E0430FD39C024FFF5CF37
:10104000EDCF20918D0423FFF0CF24FDE7CFCDCF4E
:1010500020918D0423FD2EC030918E0431FFEECF00
:1010600084EE90E0089520918D0425FFDECFC9CF56
:1010700020918D0425FD21C020918E0423FFD5CF22
:1010800089E390E0D2CF20918D0426FFCECF8AE273
:1010900090E0089520918D0426FFC7CF81E390E072
:1010A000089583EE90E0089582EE90E0089580EE3A
:1010B00090E0089586EE90E0089585E390E008952D
:1010C0001F93CF93DF930E94BE07EC01C11580E50B
:1010D000D807F0F5C11580E4D80708F09CC0C03EE1
:1010E000D10520F5CD3CD10508F082C0C83AD10524
:1010F00078F4C53AD10508F073C0C130D10519F1B3
:10110000209709F1C430D105F0F4D0E0C0E01BC055
:10111000C33CD105D0F7C85AD0E0CC0FDD1FCF5269
:10112000DC4F0990D881C02DD4640DC0C11580E278
:10113000D80708F0D1C0C11581E0D80708F05AC01F
:10114000C83ED10510F7CE01DF91CF911F910895D0
:10115000C03682E5D80718F5C03482E5D80708F014
:101160006BC0C03282E5D80708F05FC0C11582E5C8
:10117000D80708F497C02C2F2695269580E2289F43
:10118000900111248C2F8370C1E0D0E002C0CC0FFD
:10119000DD1F8A95E2F7C22BD32BDD68D4CFC03A8E
:1011A00082E5D80760F4C03882E5D80708F459C052
:1011B000CF71D0E0DC2FCC27C46FD06AC4CFC03C45
:1011C00082E5D80708F462C0C03E82E5D80708F07F
:1011D0009CCFDC2FCC27CC27DF71C06FD06AB3CF78
:1011E000C55AD0E0C253DC4FC881D0E0D064ABCF49
:1011F000D065A9CF8D2F0E946F07182FCE01992798
:101200000E94BE07C12FD0E0DC2FCC27CC27DF7196
:10121000C82BD92B98CFCE0199270E94BE07CC2787
:10122000DF70C82BD92BD06A8ECFCF71D0E0DC2FE6
:10123000CC27C16FD06A87CF2C2F26952695277093
:1012400080E2289F900111248C2F8370C1E0D0E0B0
:1012500002C0CC0FDD1F8A95E2F7C22BD32BDC68CE
:1012600072CF2C2F26952695277080E2289F90011B
:1012700011248C2F8370C1E0D0E002C0CC0FDD1FA1
:101280008A95E2F7C22BD32BDA685DCF8C2F8F7152
:101290000E946F07C82FD0E0DC2FCC27CC27DF714E
:1012A000D06251CF8C2F8F710E946F0755E0D69579
:1012B000C7955A95E1F7CF70D0E0DC2FCC27282FC7
:1012C00030E084FF05C044E0220F331F4A95E1F768
:1012D000C22BD32BD06937CF8D2F8F710E946F0710
:1012E000182FCE0199270E94BE07C12FD0E0DC2F16
:1012F000CC27CC27DF71C82BD92BD2CF8091760495
:10130000882331F0109276041092750410927404C0
:101310000895809590917304982390937304089591
:1013200010926904109268041092670408959091D5
:101330006604292F282321F0809589238093660451
:1013400008958091D50590919C05981301C008954A
:101350008F5F8770FACF292F9F3078F5873068F537
:1013600090E037E0239F800D911D1124682F677056
:1013700023E0969587952A95E1F7FC01EE0FFF1F74
:10138000E80FF91FEB5CFB4F50E040E080E021915B
:1013900030E0062E02C0369527950A94E2F72170B8
:1013A0003327042E01C0220F0A94EAF7822B4F5FE5
:1013B0005F4F4330510559F7089580E00895292F74
:1013C0009F3098F5873088F590E037E0239F800DB7
:1013D000911D1124282F277041E001C0440F2A9548
:1013E000EAF723E0969587952A95E1F7FC01EE0F41
:1013F000FF1FE80FF91FEB5CFB4F30E020E070E0CF
:101400005191DF011197CB01022E02C0969587956D
:101410000A94E2F7817081958527842385278C9330
:101420002F5F3F4F2330310559F70895809377049C
:10143000089580FF09C0479A81FF08C05D9A82FF26
:1014400007C0899A81E008954798F6CF5D98F7CF55
:101450008998F8CF9C013A9521153F4150F5FC0140
:10146000EE27F170BC0166277270AC0144275470FE
:101470009C012227387094FF0EC080E1EF2B09F405
:1014800080E0672B09F08062452B09F08064232BF4
:1014900089F08068089581E0EF2B09F480E0672BE4
:1014A00009F08260452B09F08460232B19F08860D5
:1014B000089580E00895882321F081FF02C0889A72
:1014C0000895889808950E945B0A80938C0408957B
:1014D00090918C0421E030E0F90101C0EE0F8A9573
:1014E000EAF7D90102C0AA0FBB1F6A95E2F7EA2BFF
:1014F00001C0220F4A95EAF7892F8E23E81305C011
:10150000292B822F0E94630A089520952923F9CF61
:1015100021E030E001C0220F8A95EAF72095809102
:101520008C0482230E94630A089590916904809537
:10153000892380936904282F277069F4891759F04B
:1015400090918E0492FF07C08695869586950E949D
:10155000880A0E949009089521E030E001C0220F1E
:101560008A95EAF780918C04822B0E94630A089581
:101570000F931F93CF93DF938B01EA01909189051D
:10158000943061F58093E9008FEF9091E8008150ED
:1015900095FD06C095ED9A95F1F700008111F5CF04
:1015A0008091E80085FF1AC00E940D04811111C0CE
:1015B0008091E80085FD06C08091E8008E778093D9
:1015C000E800F2CFF80181918F018093F10021971B
:1015D00079F78091E8008E778093E800DF91CF91D2
:1015E0001F910F91089543E050E0BC0184E00E94F8
:1015F000B80A089546E050E0BC0184E00E94B80AB1
:101600000895CF93DF93EC0148E050E0BC0181E006
:101610000E94B80A88E0FE01AFE7B5E001900D92A4
:101620008A95E1F7DF91CF910895CF93C82F6FEF9F
:10163000811163EC84E290E00E9441306FEFC111B0
:1016400060E385E290E00E9441306FEFC11166ECEB
:1016500086E290E00E944130CF910895CF93DF93CE
:10166000CCE1D2E060E0CE010E9441302196C1156C
:1016700084E0D807B9F7DF91CF9108951F93CF93F6
:10168000DF93122F8230E0F46F30D0F44730C0F493
:10169000C42FD0E0CC0FDD1F9EE0699FC00DD11D8F
:1016A000112492ED899FC00DD11D1124632FCE010D
:1016B00088960E944130612FCE0189960E94413068
:1016C000DF91CF911F91089584E290E00E941D3038
:1016D000833C89F485E290E00E941D30803359F408
:1016E00086E290E00E941D3091E0863C09F090E097
:1016F000892F8170089580E0FCCF0F931F93CF93C3
:10170000DF93823030F56F3020F5473010F5C42F6D
:10171000D0E0CC0FDD1F2EE0629FC00DD11D112443
:1017200032ED839FC00DD11D1124CE0188960E94F9
:101730001D30082F10E0102F0027CE0189960E943F
:101740001D309801282BC901DF91CF911F910F9176
:10175000089590E080E0F8CF462F2091C9043091A1
:10176000CA04232B99F4703F39F4603F79F48091D7
:10177000D4049091D50408957F3040F4673030F45C
:10178000823020F4672F0E947D0B089590E080E066
:101790000895CF92DF92FF920F931F93CF93DF9321
:1017A0006C0100918C0480917704082BC1E0D0E09B
:1017B00010E0FC2EC8010C2E02C0959587950A9466
:1017C000E2F780FD0FC0CD2B51F4F12C8F2DDF916E
:1017D000CF911F910F91FF90DF90CF900895D0E0AF
:1017E000C0E0E7CFB6018C2F0E94AC0B0E946008CE
:1017F000019749F3EBCFCF93DF93EC010E94C90B24
:10180000BE010E94AC0B0E946008DF91CF91089549
:10181000FC0124812223C1F0808191810E94FB0B75
:1018200092959F70963091F058F4925F9F7092302D
:1018300058F4803F19F030F4883E30F481E0089588
:101840009A5FF4CF843FD1F380E00895883EB0F3EF
:10185000813FD1F7F3CFA6E0B0E0E1E3FCE00C94E8
:10186000582F49835A8349815A819923A1F0222311
:1018700091F0CA010E94C90B182F682F89819A81A3
:101880000E94DF0969817A81812F0E94AC0B269624
:10189000E3E00C94742FCA010E94AB09182FF2CF19
:1018A0008091E705811131C087E090E00E941D30F2
:1018B0008093E80582FD08C0682F67606093E805A3
:1018C00087E090E00E944130EBEEF5E080E090E0B0
:1018D000A0E8BFEB1182108282839383A483B58337
:1018E00017821682389626E0EB32F20799F70E94AB
:1018F000E406279A82E0809380008AE18093810049
:1019000081E08093E7050E9440070895B0E0A0E0E1
:10191000ECE8FCE00C94532F6B017C0120E030E0FC
:10192000A9010E944D3187FF04C0F7FAF094F7F83F
:10193000F0948091E605882309F458C08091E7056A
:10194000811102C00E94500C0BEE15E0C7E0D0E000
:10195000A7019601F80162AD73AD84AD95AD0E940B
:101960004D3181113CC083E0CC0FDD1F8A95E1F73A
:10197000C551DA4F1982188280E090E0A0E8BFEBF1
:101980008A839B83AC83BD831F821E82AC01BD0111
:10199000F6E0C332DF0789F4C1E0C093CB04809145
:1019A0002B06815080932B06811120C00E94E406F3
:1019B000C093DE021092E60519C088E0FE01389659
:1019C000DE0101900D928A95E1F7198618864A8703
:1019D0005B876C877D871F861E862896D9CF2197C7
:1019E00008501109CF3FDC0709F0B2CFCDB7DEB701
:1019F000E8E00C946F2FAAE0B0E0E1E0FDE00C9489
:101A00004E2FA090DF02B090E00281E090E0909332
:101A1000E0028093DF028BEFC82E83E0D82E712C7A
:101A2000760100E014C0F40125913491412F602F1C
:101A3000872D0E943E0B82E0880E911C1F5F17309D
:101A400091F79EE0E90EF11C0F5F0F3019F047018E
:101A500010E0E9CFE2EDCE0ED11CF1E07F1619F0D7
:101A600077247394DDCFCE0101967C018AE0F701E3
:101A700011928A95E9F78FEF9FEF9E838D831A87E6
:101A80000CEC11E04AE050E0B801C7010E9465305B
:101A9000065F1F4F0C31F2E01F07A1F7B092E00282
:101AA000A092DF022A96EDE00C946A2F80E00E945B
:101AB000150B60E087E290E00E9441300E94FB0C31
:101AC0000E942E0B81E00E94150B0895AAE0B0E061
:101AD000ECE6FDE00C94512F07ED14E08CECE82EC1
:101AE000FF24F39497E0B92E26EDC22E24E0D22EE7
:101AF000AA24A3944AE050E0B701CE0101960E94C7
:101B00000D30F8013896DF018B2D1D928A95E9F78B
:101B100089819A81D80111969C938E938F81129618
:101B20008C9312978D8113968C93139788851496B6
:101B30008C931497898515968C9315978B819C812E
:101B400017969C938E93169718961C9218978A85D1
:101B500087FF3CC01E961C921E921D9780FF03C0FB
:101B6000D8011896AC9281FF04C0F801908592606C
:101B7000908782FF07C0D80118969C9118979460AF
:101B800018969C9383FF04C0F80190859860908715
:101B900084FF07C0D80118969C91189790611896F9
:101BA0009C9385FF04C0F801808580628087FAE0FD
:101BB000EF0EF11C015F1F4F8CE1E81682E0F80682
:101BC00009F098CF2A96EAE00C946D2FF801D6869A
:101BD000C586C4CF8554990BBC01990F880B990B0E
:101BE0000E94F53120E030E040E451E40E9452319F
:101BF0009B01AC0160E070E080E090E40E9417334C
:101C000020E030E04CED53E40E94AA320895909118
:101C10008E0492FB222720F9281779F080FB92F995
:101C200090938E0460918D0470918E0484E090E016
:101C30000E945F3082E00E94950A089590E080E063
:101C40000E942B30853E9E4F19F40E94640B08952C
:101C500080E00895AB01BC018FE190E00E94533019
:101C60000895E9E9F5E0880F90819170982B9083B1
:101C7000609198057091990580919A0590919B05C6
:101C80000E942A0E0895E8E9F5E080818160808352
:101C900088E18183EBE9F5E080818C7F80838CE0B3
:101CA0000E94310E609198057091990580919A0576
:101CB00090919B050E942A0E0895E8E9F5E0808145
:101CC0008E7F8083609198057091990580919A0527
:101CD00090919B050E942A0E0895E8E9F5E0808125
:101CE00081608083609198057091990580919A0533
:101CF00090919B050E942A0E0895A8E0B0E0E3E8C9
:101D0000FEE00C94592F65EE7EEF90E080E00E949B
:101D10005F3060E082E090E00E94413081E080939B
:101D2000770461E083E090E00E94413060E074E17C
:101D300084E090E00E945F3060E086E090E00E94E6
:101D4000413060E087E090E00E94413040E050E0A8
:101D5000BA0188E090E00E94533060E083E290E0B6
:101D60000E94413060E08CE090E00E94413060E0F1
:101D70008DE090E00E94413019821A821B821C8201
:101D80001D821E821F82188648E050E067E170E0E5
:101D9000CE0101960E94313040E050E0BA018FE15F
:101DA00090E00E9453300E94430E80E00E94150B89
:101DB0000E94560D40E050E0BA018FE090E00E9492
:101DC000533040E050E0BA0183E190E00E9453308C
:101DD0002896E2E00C94752F1F920F920FB60F9287
:101DE00011242F933F934F935F936F937F938F9320
:101DF0009F93AF93BF93EF93FF938091E10082FF96
:101E000009C08091E20082FF05C08091E1008B7FD4
:101E10008093E1008091DA0080FF24C08091D80097
:101E200080FF20C08091DA008E7F8093DA0080915D
:101E3000D90080FF9DC080E189BD82E189BD09B4E0
:101E400000FEFDCF81E08093890580917C058111A2
:101E500009C00E94EE030E948F048091E20084601A
:101E60008093E2008091E10080FF17C08091E20042
:101E700080FF13C08091E2008E7F8093E20080910A
:101E8000E20080618093E2008091D80080628093BC
:101E9000D80019BC85E0809389058091E10084FF1A
:101EA0002BC08091E20084FF27C080E189BD82E1E0
:101EB00089BD89B5982F917080FFFBCF8091D800A4
:101EC0008F7D8093D8008091E1008F7E8093E10028
:101ED0008091E2008F7E8093E2008091E200816039
:101EE0008093E20080918A05882309F447C084E04A
:101EF00080938905809189058091E10083FF27C047
:101F00008091E20083FF23C08091E100877F80936E
:101F1000E10082E08093890510928A058091E100BA
:101F20008E7F8093E1008091E2008E7F8093E200BB
:101F30008091E20080618093E20042E060E080E016
:101F40000E945D048091F00088608093F000FF9112
:101F5000EF91BF91AF919F918F917F916F915F9121
:101F60004F913F912F910F900FBE0F901F9018959A
:101F700019BC1092890510927C0574CF8091E30002
:101F800087FD93E090938905B5CF78941F921FB693
:101F90001F9211248F939F93AF93BF9380917805E5
:101FA00090917905A0917A05B0917B050196A11DCC
:101FB000B11D8093780590937905A0937A05B0932D
:101FC0007B05BF91AF919F918F911F901FBE1F9076
:101FD00018952FB7F8948091780590917905A09184
:101FE0007A05B0917B052FBF08958091990580FDFA
:101FF00004C090919705911118C080FF04C0809192
:102000009605811112C081E0809397058093960513
:102010000E94E90F90939505809394058091930514
:10202000882311F0289A0895289808950E94E90FAE
:102030009C0190916B0580916C05982B21F0309359
:1020400068052093670590916D0580916E05982B2A
:1020500021F03093660520936505E0917305F091BA
:102060007405309749F082E0809369050680F78116
:10207000E02D89E695E009950895662309F45DC091
:102080008D3C41F40E941806819580936C050E9456
:10209000161008958E3C19F40E941806F6CF8F3C56
:1020A00031F40E941806819580936B05F0CF803D36
:1020B00019F40E941806F8CF893D29F40E94F6050C
:1020C00080936D05E4CF8A3D21F40E94F605819549
:1020D000F7CF8B3D31F40E94F605819580936E0514
:1020E000D6CF8C3D19F40E94F605F8CF9FE2980FE9
:1020F000983070F4815D990B21E030E001C0220F2F
:102100008A95EAF780916A05822B80936A05BFCF92
:102110008D3D31F480916405816080936405B7CF73
:102120008E3D21F4809164058260F7CF8F3D09F0E8
:10213000AECF809164058460F0CF40916B058D3CFB
:1021400059F480916C0587FF0DC010926C05411108
:102150000BC01092620508C08E3C81F480916C0522
:1021600018169CF3442381F080916D0590916E05C3
:10217000892B09F08CCF1092630589CF8F3C49F4ED
:1021800047FFF0CF10926B0580916C058111ECCF69
:10219000E0CF803D19F41416ACF3E4CF90916D05B7
:1021A000893D29F41916F4F610926D05DBCF8A3DAE
:1021B00019F497FFD7CFF8CF90916E058B3D29F496
:1021C00097FFD0CF10926E05CDCF8C3D19F4191624
:1021D000CCF3C8CF9FE2980F983090F4815D990BB3
:1021E00021E030E0B90102C0660F771F8A95E2F75F
:1021F000CB01809590916A05892380936A05B2CFBF
:102200008D3D31F4809164058E7F80936405AACF63
:102210008E3D21F4809164058D7FF7CF8F3D09F0CD
:10222000A1CF809164058B7FF0CFB0E0A0E0EBE11F
:10223000F1E10C944E2F4B015C017A018091E8058D
:1022400080FF81C08091E705811102C00E94500C7F
:1022500020E030E0A901C501B4010E944D3187FFA3
:1022600004C0B7FAB094B7F8B09470902B06872DDD
:102270008150990B6C01EC01CF3FDC0709F04DC098
:1022800081E0870D893008F47CC088E080932B06BC
:102290008BEE95E028E0FC013896DC0101900D9270
:1022A0002A95E1F7089626E08332920799F781E0B4
:1022B0008093CB048093E605C0912B06C150DD0BC3
:1022C0000E94E90FFE0123E0EE0FFF1F2A95E1F7C0
:1022D000E551FA4F9183808382829382A482B582F2
:1022E000F782E6820E94E90F8091DE02882359F18D
:1022F00080916F00886080936F008091800088607B
:10230000809380008091E605882321F00E94A2033B
:102310000E94EF061092DE0216C08E0133E0000F1D
:10232000111F3A95E1F705511A4FA5019401F801E3
:1023300062817381848195810E944D3181111FC01A
:10234000CC15DD052CF0CDB7DEB7EDE00C946A2F8F
:10235000219688E0F8013896D80101900D928A956F
:10236000E1F70E94E90FF8019187808782869386C2
:10237000A486B586F786E686085F1F4FE1CF2197D2
:102380007BCF80932B0693CFCF92DF92EF92FF9279
:10239000CF93DF93EC017B018091E80580FD09C0BC
:1023A0000E944007DF91CF91FF90EF90DF90CF9098
:1023B00008958091E705811102C00E94500C809120
:1023C000E60581110E94400781E08093E5051092A7
:1023D000E405D093E305C093E205F092E105E092B5
:1023E000E0051092DF051092DE051092DD056C818C
:1023F0007D818E819F810E94C4319B01A3E5B7E05E
:102400000E94D13020EFC22ED12CE12CF12CA7015B
:1024100096010E94AF30688179818A819B81A901F0
:102420000E9415110E94E90F9093DC058093DB0553
:10243000E091E205F091E3058091DD059091DE05E4
:1024400033E0880F991F3A95E1F7E80FF91F64818F
:102450007581868197810E94C4319B01A3E5B7E015
:102460000E94D130A70196010E94AF303093DA0567
:102470002093D90597CF81E08093700568E070E0E4
:1024800081E693E00E94C41108950E9467071092AC
:102490006F0568E070E081E293E00E94C411089546
:1024A00081E080936F0568E070E081EE92E00E9429
:1024B000C411089562E070E08EEC92E00E94C411B5
:1024C0002FEF81EE94E0215080409040E1F700C072
:1024D00000000E9440076091E8056E7F6093E80568
:1024E00087E090E00E94413008956091E8056160C6
:1024F0006093E80587E090E00E94413062E070E080
:102500008EEB92E00E94C41108950E94EA0D4FEFF5
:102510005FEF0E9415110895A1E0B0E0E2E9F2E159
:102520000C944D2FF12CE12C10E088248394912CF5
:1025300026E1A22E24E0B22E64010E2C02C0CC0CA7
:10254000DD1C0A94E2F70C2DC98220E130E040E066
:1025500061E08FEF0E94562E61E070E0CE0101969F
:102560000E94E62E0E94FE2E2E9A81E29EE40197A2
:1025700009F047C02E9881E29EE4019709F048C017
:1025800087E0682E84E0782EEDE7F4E0602F609518
:10259000D3015D913D01852F82958F7090E0DC0124
:1025A00090968C914191242F30E02C213D2190E098
:1025B0005F7002C0959587955A95E2F780FF2FC00E
:1025C000CF010197402B232B79F1A614B70401F713
:1025D000BFEFEB1AFB0A27E0E216F10409F0ACCFDB
:1025E000112331F181E080937C040E94E90F9093E4
:1025F0007B0480937A0410E0812F2196EEE00C9406
:10260000692F1E99B7CF25E02A95F1F70000AFCFCB
:102610001E9BB6CFA5E0AA95F1F70000AECF232B05
:10262000A1F2CF0101974623DC014C9311E0CDCFFD
:1026300000917C04002301F380917A0490917B0443
:102640000E945D050597C0F24FE050E06DE774E031
:102650008AEB94E00E94F92F892B51F08FE0EDE78F
:10266000F4E0AAEBB4E001900D928A95E1F7102F07
:1026700010927C04C1CF90917604292F282361F019
:102680008095892380937604882339F00E94E90F8E
:102690009093750480937404089590E080E0F8CFDF
:1026A000CF9380917304C0916A04C82B8091760403
:1026B0008823F9F00E94E90F209174043091750489
:1026C000821B930B8838934110F00E947E09809101
:1026D0007604C82B20E08AE294E0FC013191CF011E
:1026E00031112F5FF4E080339F07B9F721110E9469
:1026F0007E0980915B0580958C2390915C05892BE8
:102700008093280448E050E06BE674E088E294E0AF
:102710000E94F92F892BA9F088E0E8E2F4E0ABE60B
:10272000B4E001900D928A95E1F7E0917305F09184
:102730007405309731F00280F381E02D88E294E057
:102740000995CF910895CF9310927304C6E0EAE201
:10275000F4E0DF018C2F1D928A95E9F790E080E08C
:102760000E94C40590E080E00E949F0510926A04D8
:102770000E945013E9E6F5E0DF011D92CA95E9F7E2
:102780001092620510926305109264050E94161063
:10279000CF910895AAE2B0E0E0EDF3E10C94582F58
:1027A0008BE895E02091F100DC012D93CD01B5E09F
:1027B00083399B07B9F780918C05833009F472C087
:1027C000B8F4813009F449C0823009F4B3C0809173
:1027D000E80083FF96C280918B0590918C059A301A
:1027E00008F08FC2E92FF0E0E256FB4C0C943C2F2E
:1027F0008A3009F48EC08B3009F471C0893039F702
:1028000080918B05813219F780918F059091900509
:10281000009711F00297D9F68091E800877F8093A6
:10282000E8008091E80082FF38C09091F300809129
:10283000F200029731F48091F100813011F086307E
:1028400021F48091F10080937E058091E8008B77E0
:102850008093E8000E943E04BACF80918B05813AB4
:1028600009F0B5CF8091E800877F8093E8008091E0
:102870008F0590919005892B61F468E08FE795E0D2
:1028800070E00E94EA048091E8008B778093E80072
:102890009ECF60E090E080E0F3CF809189058111C8
:1028A000C0CF95CF80918B05813A09F090CF809170
:1028B0008F0590919005892B09F089CF8091E800D0
:1028C000877F8093E8008091E80080FFFCCF8091B3
:1028D000A1038093F1008091E8008E77B9CF8091B9
:1028E0008B05813209F073CF80918F05909190050F
:1028F000892B09F06CCF8091E800877F8093E800F6
:102900000E943E0480918D058093A1030E94A31331
:102910005ECF80918B05813209F059CF8091E8001C
:10292000877F8093E8000E943E0480918E0580930B
:102930007D054DCF80918B05813A09F048CF80917C
:10294000E800877F8093E8008091E80080FFFCCF5B
:1029500080917D05BECF803899F0823809F0D1C1D1
:1029600080918F058F70873008F0CBC18093E9008C
:102970008091EB0085FB882780F91092E90006C062
:102980008091870590918805911182609091E8006F
:10299000977F9093E8008093F1001092F10080916E
:1029A000E8008E77AAC1882309F498C1823009F023
:1029B000A8C180918D0581119BC180918F058F7079
:1029C0002FEF280F263008F09CC18093E90020915A
:1029D000EB0020FF8DC1933031F48091EB008062D9
:1029E0008093EB0085C19091EB0090619093EB0098
:1029F00021E030E001C0220F8A95EAF72093EA0037
:102A00001092EA008091EB008860EACF811179C1D1
:102A100010918D051F778091E3008078812B809342
:102A2000E3008091E800877F8093E8000E943E04E5
:102A30008091E80080FFFCCF8091E3008068809364
:102A4000E30082E0111183E0809389055AC1805828
:102A5000823008F056C120918D0530918E052C3DB5
:102A6000E3E03E07A1F583E08A838AE289834FB7DA
:102A7000F894DE01139620E03EE051E2E32FF0E00F
:102A800050935700E49120FF03C0E295EF703F5F41
:102A9000EF708E2F90E0EA30C0F0C7968D939D9333
:102AA0002F5F243159F74FBF8091E800877F8093D3
:102AB000E8006AE270E0CE0101960E94EA0480918B
:102AC000E8008B778093E8001CC1C096E7CF809127
:102AD0008F0590919005432F55274330510509F4F8
:102AE0004AC078F54130510509F485C08BE590E086
:102AF000EFE9F5E04230510509F003C12091E8000B
:102B0000277F2093E800209191053091920582174C
:102B1000930708F49C0140E02115310509F070C0CD
:102B200041116EC08091E80082FDC9CF8091890576
:102B3000882329F2853019F28091E80083FFF2CFD3
:102B4000BECF4132510509F447C04232510509F068
:102B5000D8C08330910508F0D4C0FC01EE0FFF1FF0
:102B6000E75EFB4F0190F081E02D8A5E9B4FDC0118
:102B70008C9190E01DC0332721303105E9F02115FB
:102B8000310579F022303105F9F02330310509F0B3
:102B9000B8C0ECE0F6E0E4918E2F90E0ECE0F6E0D7
:102BA00007C0E2E5F6E0E4918E2F90E0E2E5F6E082
:102BB000009709F4A6C0A2CFE0E4F6E0E4918E2FDE
:102BC00090E0E0E4F6E0F4CFEAE2F6E0E4918E2F64
:102BD00090E0EAE2F6E0ECCF8330910508F091C096
:102BE000880F991FFC01E15EFB4F0190F081E02D01
:102BF00089E090E083CF82E190E0EAEFF5E07ECFDC
:102C000080918905882309F45ACF853009F457CF7C
:102C10008091E80083FD53CF8091E80082FD82CF50
:102C20008091E80080FF78CF9091F3008091F200CE
:102C30002115310519F08830910550F041E00897D1
:102C400009F040E08091E8008E778093E80064CF3F
:102C500044914093F1003196215031090196E8CF1B
:102C6000803809F04EC08091E800877F8093E800AB
:102C700080918A058093F10092CE811142C010911B
:102C80008D051230F0F58091E800877F8093E80091
:102C900010938A050E943E04112311F084E005C0C0
:102CA0008091E30087FDFACF81E08093890542E0BF
:102CB00061EC81E00E945D0442E261EC84E00E94EC
:102CC0005D0442E261EC82E00E945D0442E260EC5D
:102CD00083E00E945D048091890513C080918D0579
:102CE000813079F481E0933009F080E080938805A9
:102CF0001092E9008091E800877F8093E8000E94AD
:102D00003E048091E80083FF0AC08091E800877F3D
:102D10008093E8008091EB0080628093EB00AA969C
:102D2000E3E00C94742F1F920F920FB60F921124B0
:102D30002F933F934F935F936F937F938F939F93C3
:102D4000AF93BF93CF93DF93EF93FF93D091E900BD
:102D5000DF708091EC00C82FC17080FDC0E8109238
:102D6000E9008091F000877F8093F00078940E94C2
:102D7000CA131092E9008091F00088608093F000FF
:102D8000CD2BCF70C093E900FF91EF91DF91CF91F0
:102D9000BF91AF919F918F917F916F915F914F9173
:102DA0003F912F910F900FBE0F901F901895882381
:102DB00041F0809590916A04892380936A040E946F
:102DC00050130895882339F090916A04982B9093BA
:102DD0006A040E9450130895882321F00E948909F3
:102DE0000E9450130895882339F090917304982B12
:102DF000909373040E9450130895882381F19CEFEF
:102E0000980F913A28F40E9478050E945013089573
:102E100090E2980F983050F4877091E001C0990FBC
:102E20008A95EAF7892F0E948909EFCF9BE5980FD1
:102E3000933028F490E080E00E94C405089598E55E
:102E4000980F9B3128F490E080E00E949F05089540
:102E500093E3980F933118F460E00E943D100895B9
:102E6000FF920F931F93CF93DF93F82E009160058D
:102E7000109161050115110509F449C010925F0513
:102E800010925E0510925B0510925C05D8011696B3
:102E9000CD91DC919E013A9521153F4108F4D07EF9
:102EA000D1E0C11101C0D0E0D8011996ED91FC919B
:102EB0001A97309731F01B966D917C9180E00995BF
:102EC000D823DD2339F08CEF8C0F813A30F58C2F2D
:102ED0000E947805FF2099F0E0916005F09161056E
:102EE000808584FD0CC080915D05882341F0808140
:102EF00091819C01215031092F333E47A0F00E945F
:102F00005013109261051092600510925D05C80182
:102F1000CDB7DEB7E5E00C94722F0E9450138C2FD2
:102F20000E94FD16D7CF0E944606E9CFCF93C82F47
:102F30008823A9F08CEF8C0F813A98F4EAE2F4E050
:102F40008191C81709F441C084E0E033F807C1F764
:102F50006C2F88E294E00E9485050E945013CF9167
:102F6000089580E28C0F883068F4C77021E030E06B
:102F700001C0220FCA95EAF780917304822B8093D7
:102F80007304EBCFEBE5EC0FE33040F4F0E0E253F9
:102F9000FC4F808190E00E94C405E1CFE8E5EC0F92
:102FA000EB3150F4F0E0EE0FFF1FEF52FC4F808149
:102FB00091810E949F05D3CF83E38C0F833178F6F4
:102FC00061E08C2F0E943D10CACF8C2F0E947805A3
:102FD0000E945013BDCF1F93CF93DF93182FEB01A7
:102FE0000E949617209739F4812F0E94FD16DF91D9
:102FF000CF911F9108958FE99FE00197F1F700C0ED
:1030000000002197EFCF0F931F93CF93DF93C62F2D
:10301000D42F022FFC0185818823A9F06093D80565
:103020000E94E90F9093D7058093D605C77081E081
:1030300001C0880FCA95EAF70E94F316DF91CF917D
:103040001F910F9108958091D805681334C0809125
:10305000D6059091D7050E945D05883C910558F5ED
:1030600010E21D0FCD17B9F080E28C0F883040F4CC
:10307000C77081E001C0880FCA95EAF70E94EC167C
:10308000183048F481E09D2F977001C0880F9A9501
:10309000EAF70E94F31670E060E0802F0E94EB17C1
:1030A000183060F6D77081E001C0880FDA95EAF732
:1030B0000E94EC16C3CFC77081E001C0880FCA958B
:1030C000EAF7F6CFB0E0A0E0E8E6F8E10C94512F83
:1030D000EC018AE0A82E2881222309F4A6C0213021
:1030E00009F049C08981813079F48E010E5F1F4F4C
:1030F0008A8170E060E0893311F460E570E00E943D
:10310000EB17E8012196E7CF823039F48E010E5F8C
:103110001F4F8A810E949617F4CF833039F48E01B5
:103120000E5F1F4F8A810E94FD16EBCF843011F095
:103130002196E8CF2A81229690E080E0AE014F5F91
:103140005F4F2053330B2A30310550F00097D1F2F6
:10315000EFE9FFE03197F1F700C000000197F6CFEB
:10316000A89EB001A99E700D1124C901860F971F5A
:103170002981EA01E3CFE22FF0E0EA57F94FB4905A
:10318000822F86958695869590E0FC01EA58F94F46
:10319000E4902770F12C022E02C0F594E7940A9473
:1031A000E2F7F1E0EF22FF24FC01EA59F94FC49065
:1031B000D12C022E02C0D594C7940A94E2F731E0D4
:1031C000C322DD24FC01EA5AF94F049110E002C049
:1031D000159507952A95E2F701701127E114F1047E
:1031E00019F081EE0E949617C114D10419F086EEF1
:1031F0000E94961770E060E08B2D0E94EB17C114BF
:10320000D10419F086EE0E94FD16E114F10419F0C4
:1032100081EE0E94FD160115110509F473CF70E0CF
:1032200060E08CE20E94EB176DCFCDB7DEB7EAE02D
:103230000C946D2FCF93DF93EC010E942A0A9E011C
:10324000205E31092830310510F0209741F40E94AA
:10325000F3168C2F0E949617DF91CF9108950E944C
:10326000E216F7CF90918E0492FF10C098E0899FEC
:1032700090011124622B609369040E94AC0A0E94A1
:10328000E90F909368048093670408950E94AC0A44
:103290000895CF93DF930E94A3130E9467070E94B3
:1032A000E90FEC0163E070E084E091E00E94C4115A
:1032B000CE010E945D058A3F910550F00E944007B3
:1032C0008091930581110BC0289ADF91CF910895C9
:1032D0008FE99FE00197F1F700C00000E9CF28983F
:1032E000F4CF80E00E94491988E19AE00FB6F89483
:1032F000A895809360000FBE90936000FFCFA7E277
:10330000B0E0E5E8F9E10C94492F7C01DC0114966A
:103310008C911497882311F40C946C2321E04C9128
:1033200011965C91119712966C91129713967C915D
:10333000139715969C910E942B0C8C01F7018581A7
:103340000A38F4E71F0709F01AC1882361F0809159
:10335000E805682F6D7F81FF62606093E80587E074
:1033600090E00E944130F70185810F38F4E71F0794
:1033700009F048C1882361F080E090E0ACEDB3E44F
:103380008093340190933501A0933601B0933701B7
:103390008091E805982F9370933009F07DC0D70194
:1033A00015969C91992309F47BC0980120583447C5
:1033B0002230310508F474C090916F0591114DC110
:1033C00090917005911149C180FF47C1609134010E
:1033D0007091350180913601909137019B01AC01CC
:1033E0000E94E1304B015C010E94E02FBC01990F6B
:1033F000880B990B0E94F53120E03EEF4FEF56E429
:103400000E94523120E030E040EC5FE30E94AA329B
:1034100020E030E040E85FE30E94E130A501940144
:103420000E94AA32609324017093250180932601A3
:10343000909327010E94E02FBC01990F880B990BF4
:103440000E94F53120E03EEF4FEF56E40E945231EA
:1034500020E030E040EC5FE30E94AA3220E030E060
:1034600040E85FE30E94E130209134013091350162
:1034700040913601509137010E94AA3260932C018D
:1034800070932D0180932E0190932F0163E070E0E3
:103490008CE191E00E94C411F70185818111DDC0AA
:1034A0008091980580FF12C080919B058370D701A1
:1034B00015969C91992309F45FC1823038F4B701C5
:1034C000C8010E94B70681110E94F50FF70185819E
:1034D000882309F4C2C1980137572038310510F00C
:1034E0000C94C222D02EFFE0F01710F40C945C2351
:1034F0008FEF93E00E941D3081110C945C230CE14E
:1035000012E0D1103DC174E0372EAE014F5F5F4F26
:103510003A0144244A94D301E32D1D92EA95E9F738
:103520006801FFEFCF1ADF0AC8010E941D308983AE
:10353000882311F40C945C238130E9F4580122E0D3
:10354000A20EB11CC6010E941D30582E8A8388230A
:1035500011F40C945C238FEF850D833008F01EC1AD
:10356000680133E0C30ED11CC5010E941D308B835E
:10357000882309F444C1C3010E94621840C10B387A
:1035800024E71207A1F10C3834E7130709F0EBCE5A
:10359000882349F06091E8056D7F6093E80587E036
:1035A00090E00E944130F70185810E38F4E71F0753
:1035B00009F0EECE882309F4EBCE29E038E348E9A0
:1035C0005FE36091340170913501809136019091F3
:1035D00037010E9452314B015C0120E030E042E8AB
:1035E00052E40E94A53218160CF0D2CE2DC08823CA
:1035F00049F06091E80562606093E80587E090E03B
:103600000E944130D70115968C910D38B4E71B0705
:1036100051F6882309F4BCCE29E038E348E95FE39A
:10362000609134017091350180913601909137019C
:103630000E94AA324B015C0120E030E84BEB54E4DD
:103640000E944D3187FFA4CE8092340190923501C3
:10365000A0923601B09237019BCEF801E054FC47AE
:10366000ED30F10508F01CCFE855FB4C0C943C2FD5
:103670000E946D0E15CF0E945D0E12CF80919805AD
:1036800080FF0DC00E945D0E6091980570919905B4
:1036900080919A0590919B050E942A0E01CF0E946D
:1036A0006D0EF2CF0E94430EFBCE90919B0581E000
:1036B000890F83709C7F892B80939B05982F937033
:1036C0008C7F933009F780939B05DECF909199050D
:1036D000892F8E7F90FF816080939905D5CF80914F
:1036E0009805982F9E7F9E5F8170892B8093980507
:1036F000CBCF80919805982F9E7F9250F5CFC090A8
:103700009905C694F3E6FC1558F0D12C2FEFC21A98
:10371000D20A8C2D0E94310E8C2D0E94310EC0CE0B
:10372000F4E0CF2ED12CF5CFC09099058C2D869545
:10373000E4E6CE2ED12C853060F3482F4150550B56
:103740006A01E7CF80919B0582FF02C08B7FBBCFD0
:103750008460B9CF80919A05883720F4865F809382
:103760009A0592CF88E7FBCF80919A05843110F0BB
:103770008A50F5CF84E1F3CF882309F4A7CE9FCEFA
:10378000011524E0120709F497C7C8010E941D30F3
:10379000811101C0DA940F5F1F4FB3CE8BEF850DFF
:1037A000833078F5480143E0840E911CC5010E94E6
:1037B0001D308B836401882311F1680154E0C50E2C
:1037C000D11CC4010E941D308C838823C1F00B8161
:1037D0001C8101308FEF180710F0102F002796E0A2
:1037E000591651F0A7E05A1619F0C8010E941B267D
:1037F000C8010E94E32503C0C8010E941B26860160
:103800008ACEB4E065015B12FACFC5010E941D307B
:10381000B82E6801E4E0CE0ED11CC80103960E94C8
:103820001D30BB2009F448C7882309F445C7482F39
:103830004150550B449EC001459E900D1124AB2D67
:10384000A150BB0B8A0F9B1F0197C8F2EFE9FFE065
:103850003197F1F700C00000F7CF003824E71207D6
:1038600009F017C740916F05411119C1909170057A
:10387000911115C1D70115965C905110D1C180915D
:103880003902882309F496C5380140EE641A71089C
:103890004090760480916604482A80917304482AF7
:1038A00058E06516710408F0D9C1980127703327D4
:1038B00081E090E001C0880F2A95EAF7552009F4CD
:1038C000CAC1482AD7018D919C910E94AB0921E081
:1038D00030E0190102C0220C331C8A95E2F7E09116
:1038E0006005F0916105FDA3ECA3209132043091B5
:1038F00033043FA32EA347EDC42E44E0D42EB12CB5
:10390000A12CB8E0AB16B10409F475C5411005C08F
:10391000D60112968C918111DDC1F601838190E070
:1039200082219321892B09F4D5C18085982F977026
:1039300009F487E0F8E06F16710408F0A9C155207A
:1039400009F4A2C186958170882309F4C3C1D60108
:103950008D909C900815190519F4552009F4BAC1E9
:10396000ECA1FDA1EC15FD0509F4B4C1D6011D962D
:10397000ED91FC91309721F08081882309F4AAC150
:10398000642DC6010E949706882309F4A3C1081577
:10399000190509F083C50115110509F484C55110F5
:1039A00084C5EEA1FFA18E169F0609F093C1512C8C
:1039B0007CC5043944E7140761F4882309F452CF25
:1039C0001092EA0564E070E088E391E00E94C4117F
:1039D00073C6053954E7150781F3003994E71907D1
:1039E00031F4882309F43ECF0E94501265C6013994
:1039F000A4E71A0731F4882309F434CF0E94451252
:103A00005BC60239B4E71B0741F490916F05882328
:103A100009F428CF9111F2CFE7CF0115E1E71E0796
:103A200031F4882309F41ECF0E943B1245C60130B1
:103A3000F1E71F0751F4882309F414CF10927005A1
:103A400068E070E088E591E0C1CF023021E712071D
:103A500041F4882309F406CF809170058111EECFDF
:103A6000E3CF033934E7130709F0FCCE882309F4C8
:103A7000F9CE0E9467072091380230E02F5F3F4F58
:103A8000237033272093380248E2429FC001439FAE
:103A9000900D112465E070E088569E4F97CF8823E3
:103AA00009F44BC0003E110561F40E94670781E0F4
:103AB00080933104109230041092B3041092AF043A
:103AC000FBC5023E110571F40E9467078091310425
:103AD000882319F081E08093300410923104109211
:103AE000B304EAC5033E110591F490913004992383
:103AF00021F10E9467071092310481E08093B304A2
:103B00001092B0041092B2041092B104D5C50235DF
:103B1000110551F48091BC029091BD020A979093D7
:103B2000BD028093BC02C8C50135110531F48091F6
:103B3000BC029091BD020A96F2CF90913802911189
:103B40000EC0F70191812FE030E0291B3109D080B0
:103B5000F0E1DF0E5CE0259FD00C112411C0913004
:103B600051F5D70111969C9111972FE030E0291B58
:103B70003109D22EDD0CDD0CD20E9C919D5CD90E4C
:103B8000882309F445C0442319F08D2D0E94851225
:103B900080913104882351F08091AF04E82FF0E048
:103BA000E156FB4FD0828F5F8093AF040F3F11052A
:103BB00008F060CE81C5923059F4F70191812FE071
:103BC00030E0291B3109D080F3E3DF0E57E0C3CF8B
:103BD0005CE0D52E9330A1F693E2E3EAF3E0DE0158
:103BE000119601900D929A95E1F7D701EC91EC0FA7
:103BF000FD2FF11D11969C912FE030E0291B31091A
:103C0000D084BCE02B9FD00C1124E9E0DE0EB8CFAD
:103C1000442361F28D2D0E94EA0D0E94860CC6CFCE
:103C20000E35FCE71F0799F00F352CE7120749F016
:103C30000D353CE7130709F022CE80913902882325
:103C400031F01092390280E00E94301735C581E0D2
:103C50008093390231C58095482234CE552009F42D
:103C6000B3C310933304009332040E946C05609335
:103C70005705709358058093590590935A051092F3
:103C80005F0510925E051ECE82FB882780F95CCE10
:103C9000552001F1817058CE0E94FD162BC4049767
:103CA000813A910558F46C2D88E294E00E948505D4
:103CB000552009F47FC30E945013FEC40E94501384
:103CC0008FE39CE90197F1F700C000008C2D0E9462
:103CD0009617EECF9FEFA91AB90AAFE0CA0ED11C12
:103CE00010CEDC012D913C910217130709F05CC343
:103CF00051105CC310925D0580E00E9430175AC3DA
:103D000026E241EE61EEC7010E940318D5C427E206
:103D100045EE65EEF8CF26E241EE60EEF4CF27E205
:103D200045EE64EEF0CF26E241EE62EEECCF27E204
:103D300045EE66EEE8CF28E241E0EBCF80918D04BE
:103D4000816080938D0437C080918E048860809359
:103D50008E0431C080918D048260F3CF80918D04F8
:103D60008460EFCF80918D048860EBCF80918E04CA
:103D70008160EDCF80918E048260E9CF80918D04C7
:103D80008061DFCF80918D048062DBCF80918D04D4
:103D90008064D7CF0E94A31380918D048068D1CF17
:103DA00080918D048C6080938D0464E070E08AE7DC
:103DB00092E00E94C41160918D0470918E0484E0A1
:103DC00090E00E945F300E94A31376C480918E041D
:103DD000836080938E0464E070E08AE592E0E9CF2E
:103DE00080918D048E7FADCF80918E04877FAFCF81
:103DF00080918D048D7FA5CF80918D048B7FA1CF85
:103E000080918D04877F9DCF80918E048E7F9FCF80
:103E100080918E048D7F9BCF80918D048F7E91CF7A
:103E200080918D048F7D8DCF80918D048F7B89CF84
:103E30000E94A31380918D048F7783CF80918D048E
:103E4000837F80938D0462E070E08AE492E0B1CFDA
:103E500080918E048C7F80938E0462E070E08AE310
:103E600092E0A7CF80918D0482FB992790F921E001
:103E7000922790FB82F990FB83F980938D0483FF56
:103E8000E2CF93CF80918E04982F909591708E7F82
:103E9000892B90FB81F980938E0481FFDECF9BCF2D
:103EA00090918D04892F8F7B96FF80644ACF0E946A
:103EB000A31390918D04892F97FB87F9805841CFE8
:103EC00061E08EE090E00E94413075CF60E0F9CF74
:103ED00090918D04892F8F7E94FF806132CF9091D5
:103EE0008D04892F8E7F90FF81602BCF90918E045F
:103EF000892F877F93FF88602ACF85E3CCC281E03A
:103F00000E94AC0A43E062E081E00E94680AD4C3E8
:103F100081E00E94880AF6CF82E0F2CF0B353CE7C1
:103F2000130709F10C354CE7140799F00A351C47C3
:103F300009F04FC381E014C081E00E9449190E943A
:103F40004C056FEF7FEF90E080E00E945F300E94B1
:103F5000711980918E0482FB882780F991E089276E
:103F60000E94070E36C380E0FBCFC8010E94AB0958
:103F7000D82E3EC3F12FFF70DF2E107F19F0D294A0
:103F800090EFD922CC20B9F0DD2069F080E2800FDB
:103F9000883010F0811009C080917304D82AD09223
:103FA00073040E945013802F44C080916A04D82A61
:103FB000D0926A04F6CF802F0E94FD16DD20D9F141
:103FC000005E083010F0811004C08D2D0E94890918
:103FD00006C0D09480916A04D822D0926A040E94CC
:103FE000501329C0212F2F70D22E107F103219F0BC
:103FF000D29480EFD822882059F031E0831609F45A
:1040000099C0CC2009F4A5C0BB2009F452C0CBCF85
:1040100080918E0482FD49C0CC2009F440C0DD208F
:1040200039F080917304D82AD09273040E945013FF
:1040300080E00E949617A92DA850BB0B149720F47E
:104040000E94E9050E94190AAA20A9F0809169043A
:1040500080FD11C0F70115828695869586950E9490
:10406000AC0AC7010E947F198091690486958695E4
:1040700086950E94880A20E0D7014C9111965C91A8
:10408000119712966C91129713967C911397149630
:104090008C91149715969C910E942B0C1DC380E067
:1040A0000E94FD16DD2039F290CFCC2071F1B110C5
:1040B00004C08D2D0E94F316BECF41E0B41211C092
:1040C000109176048D2D8123D81609F4B4CF0E9467
:1040D000E90F9093750480937404D12AD0927604EA
:1040E000AACF55E0B512A7CF8D2D0E94F3168D2DC6
:1040F0000E943B13809166049D2D9823D91609F4E4
:104100009ACFD82AD092660496CFB1100AC08D2DCE
:104110000E94EC168D2D0E943B138D2D0E94970955
:104120008ACF81E0B81287CF809173048D2109F482
:1041300082CFEDCFCC2029F095E09B1508F47BCF02
:10414000B8CFA4E0AB1508F476CF8D2D0E94EC1605
:1041500072CFBB20D1F3B9E38B1209C0EFEFF7EEBA
:1041600023E0E150F0402040E1F700C00000802F44
:104170000E94FD1660CF812F86958695837061F031
:10418000813009F058CFC8019370C11002C080E09F
:1041900090E00E949F054FCFC8019370C11002C0EC
:1041A00080E090E00E94C40546CF6C2D802F0E94D5
:1041B0003D1041CF812F837089F5C1103CCF402F36
:1041C000429546954770440F440F802F8F70042E00
:1041D00001C0880F0A94EAF7202F207104FF07C05E
:1041E0002FE030E001C0220F4A95EAF7209516959E
:1041F00016951370123069F050F430917704113035
:1042000029F0822B83230E94160A15CF832B822B41
:10421000FACF282B809177048227F5CF8695CC2082
:1042200011F0812F8170882309F405CF402F42952A
:1042300046954770440F440F802F8F70042E01C0A5
:10424000880F0A94EAF7202F207104FF07C02FE09F
:1042500030E001C0220F4A95EAF720951695169591
:104260001370123069F050F430918C04113029F041
:10427000822B83230E94630ADECE832B822BFACF0C
:10428000282B80918C048227F5CF1F70CC2029F039
:10429000812F0E94AC0A802F0DCF802F0E94EC1638
:1042A000812F0E94880AC7CE802F32EF8316B1F18A
:1042B000381570F040EF8416D1F051EF851691F06B
:1042C000CC2009F461C0B1106ECE812F8F712AC04D
:1042D00093EF891651F1A4EF8A12F2CF80918E04E8
:1042E00082FD2FC0812F8F71CC20D9F21BC0CC2032
:1042F00081F0B4E0BB1508F49ECE1F7181E090E020
:10430000012E01C0880F0A94EAF790918C04892746
:10431000B1CFE5E0EB1508F48ECEEFCF812F8F7192
:10432000C110BFCF0E94AC0A86CE80E0CC2009F439
:10433000A1CF1F7181E0012E01C0880F0A94EAF716
:1043400099CFCC20B1F0809169048770843041F41A
:104350000E949009812F8F710E94880AA12C6BCE38
:10436000F4E063E0FB15D0F3812F8F710E943219C6
:10437000F5CF24E02B1520F40E94900964E0F4CFDF
:1043800081E00E94950AEACFBB2059F0893309F0F9
:10439000EECE3FEF47EE53E0315040405040E1F762
:1043A000E4CE812F8F717DCF552021F0FC018085D7
:1043B00085FFA2CCF801E851FC47E730F10570F524
:1043C000EB54FB4C0C943C2F8091320490913304BD
:1043D0000817190781F410923304109232041092D6
:1043E0005705109258051092590510925A051092CF
:1043F0005F0510925E0580916005909161050097C0
:10440000C9F2E8E06E16710408F06BCC642D0E94CE
:1044100097068111CFCF81E00E943017D701159602
:104420008C91882371F11092D805C8019057839719
:1044300098F484E090E00E942B3090938E04809357
:104440008D04F801E150F047E232F10508F076CC36
:10445000E454FB4C0C943C2F06312CE7120709F076
:104460009EC0809173048A7A91E009F490E0909361
:10447000340469E2811165E388E294E00E948505D5
:104480001ACC06313CE7130709F0F7C080913404D9
:10449000811133CD89E20E9478050DCC81149104FD
:1044A00009F07FCA512C912C812C80E00E9430179A
:1044B000D0926105C092600581E080935D058FE038
:1044C0008A9DF0018B9DF00D1124E952FB4F8581EF
:1044D00080935B0551100EC08114910459F08081C6
:1044E00091819C0124503109213A310508F0D4CB47
:1044F0000E9478058FE08A9DF0018B9DF00D1124BC
:10450000E952FB4FC680D780C6019A9581159F411D
:1045100010F420EED22299249394C60101978F3390
:104520009E4708F0912C8FE08A9DD0018B9DB00DA5
:104530001124A952BB4F1996ED91FC911A9730970F
:1045400031F01B966D917C9181E00995982299201C
:10455000B1F08FE08A9DF0018B9DF00D1124E9529E
:10456000FB4F868197810E942A0A80935C05C601D1
:1045700048E06416710408F092CB0E9446060E943F
:10458000501396CB003844E7140709F493C0013860
:10459000B4E71B0709F082C00E945A128DC007378A
:1045A0005CE7150709F4ABCC08378CE7180709F46A
:1045B000B3CC0330BCE71B0709F4C3CC08F0AECC86
:1045C0000115FCE71F0709F4B7CC01301C4709F4BB
:1045D000BECCF701858100811181882309F4C5CC07
:1045E000C8010E94C90BD82E682FC8010E94DF099C
:1045F000B8018D2D0E94AC0B0E9460088C01882EA2
:10460000D7011596CC9015971696BC90B2943FE0C2
:10461000B32280916904877009F1AC2CCC20F9F0A9
:10462000812F807F803469F080E2800F8830B0F085
:10463000812F807E803229F4B1E0B01778F4BB205E
:1046400069F080918E0482FF09C082E00E94950A81
:10465000809169048770AA24A3948111A12C912EC2
:1046600092942FE09222EBE0E91508F4E4CCE92DD6
:10467000F0E0E252FB4C0C943C2F07379CE7190703
:1046800009F446CC0837ACE71A0709F0A2CF82E05C
:1046900040CC0138E4E71E0709F4E4C8023834E7E7
:1046A000130709F086C9882309F4DCC88091E8055E
:1046B00080FD72CF0E94751280916904877061F04D
:1046C000D70115968C91882339F080918E0482FF52
:1046D00003C082E00E94950AA796E2E10C94652F40
:1046E000CF93DF9380916504807F09F04DC0809166
:1046F0006404882309F448C0E091D50550919C05D5
:10470000C0916004D0915F04609161047091620473
:1047100047E05E17C9F18E2F90E0E49FF00111246D
:10472000E356FA4F2481222391F1489FF001499FDB
:10473000F00D1124DF01A356BA4F11962C91119759
:104740002C1325C02C912D1322C015962C91159752
:1047500021111DC012962D913C91261B370B283C30
:104760003105A8F4809165048F70806180936504A1
:10477000ED55FA4F80818F70806180838FE594E0E2
:104780000E947F190E94A109DF91CF910895FC0139
:104790003196E770BECFA4E1B0E0E1EDF3E20C9416
:1047A0004F2F8C0186E0F801DE011F9601900D92DB
:1047B0008A95E1F7F8018481E5809FE5A92E94E0D0
:1047C000B92E90916304911128C0882319F1EE202D
:1047D000F1F0C8010E94080CF82E8823C1F087E090
:1047E000F801D50101900D928A95E1F7809163045B
:1047F000813031F480915F04909160040E94FB0B42
:104800000E9470238F2D6496ECE00C946B2FC801EE
:104810000E947F19FF24F394F5CFD080C18082805D
:104820009380F09064042091610430916204A401AB
:10483000421B530BFF2009F4D9C0483C510508F036
:1048400092C08823F9F29091600480916504282F2A
:10485000207F09F056C0C91214C090915F04D9128C
:1048600010C0E11048C08F708061809365048FE5AF
:1048700094E00E947F1980916504F8018683F12CF1
:10488000C1CFE11038C06C2D8D2D0E94CF036C2D4F
:104890008D2D0E94CF03E82E8111F1CFDF86C88ACB
:1048A0008F8598890E94FB0B292F22952F70243029
:1048B00058F49F70223088F0992399F0F80196817E
:1048C000907F79F4FE2C9ECF2A5F2F70223068F003
:1048D000C8010E947F19EF2CF5CF992311F088238E
:1048E00089F3805E883070F3F3CF803F58F3815FA7
:1048F000833070F7E7CF8091650481608093650411
:10490000BECFC91207C090915F04D91203C0EE2038
:1049100009F48DC0C8010E94080C882309F477CFE0
:10492000EE2009F474CF80916504803288F02091E4
:104930005F0430916004398728879B868A8690912E
:1049400063049C871D868E87CE0108960E947F197E
:1049500087E0F801AFE5B4E001900D928A95E1F7A8
:104960000E94702357CF90916504292F207F51F426
:104970008FE594E00E947F1987E0F50111928A95F6
:10498000E9F77DCF882309F43DCF809160048C1135
:1049900010C080915F04D8120CC0E1100AC0968349
:1049A000C8010E947F1987E0F50111928A95E9F705
:1049B00029CFC8010E94080C882309F428CFEE20D3
:1049C00009F425CF80916504803210F220915F04B4
:1049D000309160043A8329839C828B829091630496
:1049E0009D831E828F83CE010196B0CF483C510536
:1049F000D0F6882309F40ECFFE2CEE2009F407CF61
:104A0000809160048C1120C080915F04D8121CC07A
:104A10008091650480FD0FC0982F907F61F08683A0
:104A2000903F31F0982F907F905F8F70892B868315
:104A3000C8010E947F1987E0F801AFE5B4E001905A
:104A40000D928A95E1F7DECEC8010E94080C811113
:104A50007FCF80916504816080936504C8010E94C6
:104A60007F19D0CEABE1B0E0E8E3F5E20C94572F2C
:104A70004E8B5F8B688F798F8A8F9B8F092F911157
:104A800010926A041D8A86E0FE017696DE011F966A
:104A900001900D928A95E1F71A8D80918E0482FF24
:104AA0001CC00E94E90F2091670430916804821BAA
:104AB000930B8838934120F08091690482FF7FC076
:104AC0000E94E90F2091740430917504821B930BAE
:104AD0008838934110F00E947E09112349F021E0AB
:104AE0004F85588969897A89812F902F0E942B0CD4
:104AF0001B8B0C8B87E0FE013F96DE011896019020
:104B00000D928A95E1F7CE0108960E94CB23811180
:104B10000CC087E0FE013896DE01119601900D92DF
:104B20008A95E1F78C8581110BC017E08091D5053E
:104B300090919C05891331C06B96E4E00C94732F1F
:104B400020919C0530E0C90101968770992740911A
:104B5000D5054817190699F097E0929FD001939FC9
:104B6000B00D1124A356BA4FFE01319601900D925B
:104B70009A95E1F780939C050E94A109D6CF0E94E7
:104B8000A31310929C051092D50587E0EFE5F4E0A1
:104B9000DF011D928A95E9F7C8CF819FC0011124DA
:104BA00083569A4F0E94CB23882331F28091D505FA
:104BB00090E00196877099278093D505B7CF82E062
:104BC0000E94950A7DCFA6E0B0E0E9EEF5E20C94F4
:104BD000572F8C019093D5048093D404011580E263
:104BE0001807C0F4802F0E94FD16C8010E942A0AEF
:104BF0009801205E31092830310518F001151105A2
:104C000031F40E94EC162696E4E00C94732F0E9477
:104C1000D716F9CF80EF89838A830E94E90F8160DC
:104C2000682F9C838B8349815A817C8181E090E04D
:104C30000E943225E8CFA6E0B0E0E1E2F6E20C9473
:104C4000592F9093D5048093D404811520E29207C4
:104C500030F40E941A192696E2E00C94752F80EF2A
:104C600089838A830E94E90F8160682F9C838B83EC
:104C700049815A817C8181E091E00E943225EBCF0D
:104C8000A6E0B0E0E6E4F6E20C94572F0E94E90FAC
:104C90008C0180917804909179048017910781F0BC
:104CA00019821A820E94E90F682F49815A81792F4F
:104CB00080E090E00E9432251093790400937804FC
:104CC0002696E4E00C94732F1F921FB61F921124B6
:104CD0008F939F93AF93BF9380917705811113C0FA
:104CE0008091780590917905A0917A05B0917B0526
:104CF0004196A11DB11D8093780590937905A093ED
:104D00007A05B0937B05BF91AF919F918F911F90D2
:104D10001FBE1F9018951F920F920FB60F9211246D
:104D20007F928F929F92AF92BF92CF92DF92EF923B
:104D3000FF920F931F932F933F934F935F936F9324
:104D40007F938F939F93AF93BF93CF93DF93EF9313
:104D5000FF938091D0049091D104A091D204B0919E
:104D6000D3040196A11DB11D8093D0049093D1046A
:104D7000A093D204B093D3046091D0047091D10475
:104D80008091D2049091D3040E94F3316B017C0195
:104D900020E030E040E85CE36091CC047091CD0409
:104DA0008091CE049091CF040E94AA329B01AC0165
:104DB000C701B6010E944D3187FDB2C01092D004E8
:104DC0001092D1041092D2041092D3047090E50591
:104DD0008091E605811103C0772009F497C00E94F5
:104DE000E90F6C0171101DC0712C8091E6058823BC
:104DF00079F08091E9058111782ECBEED5E010E0B5
:104E000000E080912B068017110611F00CF007C10D
:104E10008091CB04882309F479C01092CB04782EBA
:104E200075C00091DB051091DC05C8010E945D058D
:104E3000C091D905D091DA058C179D07A8F2C80159
:104E40000E945D057C01EC1AFD0AD092DC05C0923F
:104E5000DB058090DD059090DE05E4012196D0937E
:104E6000DE05C093DD050E94E90FC090E005D090FB
:104E7000E105CC15DD0548F08091DF05882309F4B4
:104E800042C01092DE051092DD050091E2051091FE
:104E9000E305C091DD05D091DE058091E4055E015A
:104EA00063E0AA0CBB1C6A95E1F7811157C0F401BD
:104EB00053E0EE0FFF1F5A95E1F7E00FF11FD80105
:104EC000AA0DBB1D2D913D914D915C916081718129
:104ED000828193810E944D31811140C081E0809395
:104EE000E4054FE050E060E070E0CB010E94151156
:104EF0009092DE058092DD058FE090E09093DA05D8
:104F00008093D90572CF0E944007712C8091E605ED
:104F100081119DC08091E505811199C00E94E40630
:104F2000FF91EF91DF91CF91BF91AF919F918F91C1
:104F30007F916F915F914F913F912F911F910F91B1
:104F4000FF90EF90DF90CF90BF90AF909F908F90A9
:104F50007F900F900FBE0F901F9018951092E40550
:104F6000F801EA0DFB1D64817581868197810E949D
:104F7000C4319B01A3E5B7E00E94D13020EF30E0BF
:104F800040E050E00E94AF3081E0C81AD10840EF05
:104F9000842E912CA12CB12C2E153F05F0F0D0932E
:104FA000DE05C093DD05E216F306A8F5C9018E19EA
:104FB0009F097C0183E0CC0FDD1F8A95E1F7C00FCC
:104FC000D11F688179818A819B81A7010E94151177
:104FD000F092DA05E092D90508CFCC15DD05F8F698
:104FE000E21AF30A2196FE0123E0EE0FFF1F2A9535
:104FF000E1F7E00FF11F64817581868197810E943E
:10500000C4319B01A3E5B7E00E94D130A501940112
:105010000E94AF30C1CFEE24E394F12CCBCFEE80D1
:10502000FF80C70101978E3F9F4F68F48881998167
:105030000E945D058E159F0530F06A817B818C8111
:105040009D810E94860C0F5F1F4F2896DACE772035
:1050500009F466CF0E94A2030E94EF0661CFCDB78C
:10506000DEB7E0970FB6F894DEBF0FBECDBF85B7B1
:10507000806885BF85B7806885BF84B7877F84BF18
:105080000FB6F894A89580916000886180936000C5
:10509000109260000FBE80E890E00FB6F894809305
:1050A0006100909361000FBE8DE697E09093270416
:1050B000809326040E94660D0E94EE030E948F04D6
:1050C0008091E20084608093E20078948091890569
:1050D0008823A1F01091E9001F709091EC00892FB6
:1050E000817090FD80E8182B1092E9008091E80013
:1050F00083FD0E94CA131F701093E90082E084BDF3
:1051000093E095BD9AEF97BD80936E000E94640B6B
:10511000811102C00E94560DA7E0B4E041E050E0CA
:105120008D91E82FE295EF70F0E021A18F70BA0128
:1051300002C0660F771F8A95E2F7CB018095922F08
:10514000982391A392A1892382A374E0A631B70783
:1051500039F7269A2E980E944C2EEDE7F4E08CE861
:1051600094E0AAEBB4E011921D928E179F07D9F735
:10517000809A0E941E0E811102C00E947D0E82E064
:1051800090E00E941D3080938F0484E090E00E94A4
:105190002B3090938E0480938D040E948C128FEF9D
:1051A00096E7E1E081509040E040E1F700C0000068
:1051B0000E948C128091BA0480FF08C06FEF7FEFCD
:1051C00090E080E00E945F300E944C0583E090E018
:1051D0000E941D300E94160A80918C040E945B0A76
:1051E0003F9A4798559A5D98819A89980E94500CE9
:1051F0000E941E0E811102C00E947D0E8FE190E080
:105200000E942530609398057093990580939A05C4
:1052100090939B058091990586950E94310E80910F
:10522000980590919905A0919A05B0919B05892BBD
:105230008A2B8B2B21F0809199058E7F11F40E948F
:10524000430E81E0809393052898209A0E94F50FE1
:105250008AE992E0909374058093730588E1482E63
:10526000512CDD24D3948E010F5F1F4F5E0191E21C
:10527000A90EB11CC0C280918905843031F180E053
:105280000E94190A0E944007109277050FB6F89401
:10529000A895409260000FBEF092600083B7817FB6
:1052A000846083BF83B7816083BF7894889583B718
:1052B0008E7F83BF0FB6F894A895809160008861B7
:1052C00080936000109260000FBE0E948C12EAEB87
:1052D000F4E081918111ABC424E0E93CF207C9F705
:1052E00080918905853009F4C6CF0E94A3130E94DE
:1052F000E9050E94190A86C2981397C20E944026A7
:105300008091B60481110CC08091B4049091B504D1
:10531000009701F50E94E90F9093B5048093B404BF
:105320008091B3048823B9F18091B1049091B204C3
:10533000009741F50E94E90F9093B2048093B10465
:105340008091B004282F30E0882309F4A2C1C9015C
:105350000197A3C10E945D058D32914008F38091B1
:10536000E80580FF06C063E070E084EA92E00E94F6
:10537000C4110E94E90F9093DC058093DB05D09265
:10538000B604CECF0E945D052091BC023091BD02D3
:105390002817390778F280915E0590915F05892B77
:1053A00009F43EC040915305509154056091550554
:1053B000709156052FB7F8948091780590917905F2
:1053C000A0917A05B0917B052FBF841B950BA60B8E
:1053D000B70B40914F055091500560915105709168
:1053E000520584179507A607B707D0F080915E0590
:1053F00090915F050E941A1910925F0510925E0548
:1054000010925305109254051092550510925605AE
:1054100010924F05109250051092510510925205AE
:1054200086E0E9E6F5E0D80101900D928A95E1F772
:1054300070906A05E0906B05F0906C0590906D059A
:10544000C0906E0510926B0510926C0510926D0560
:1054500010926E058F2D8E2909F445C08091670545
:10546000909168050E945D059C01909162059923C9
:1054700009F40DC425313105B0F19F3F19F09F5F4C
:1054800090936205EE2059F00E9418069FEF1E14BB
:105490000CF491E0899F802D112480936B05FF20EF
:1054A00059F00E94180691E01F140CF09FEF899F9D
:1054B000802D112480936C0580916B05882399F0D1
:1054C00080906C05882079F00E943806882309F4C2
:1054D00007C180936B05882D0E943806882309F444
:1054E00002C180936C05892D8C2909F445C08091F7
:1054F0006505909166050E945D059C01909163058C
:10550000992309F4BFC321353105B0F19F3F19F04C
:105510009F5F90936305992059F00E94F6059FEFD5
:1055200019140CF491E0899F802D112480936D054E
:10553000CC2059F00E94F60591E01C140CF09FEF6E
:10554000899F802D112480936E0580916D0588239D
:1055500099F090906E05992079F00E943806882382
:1055600009F4C4C080936D05892D0E9438068823F4
:1055700009F4BFC080936E0580916A05871117C03A
:1055800080916B05882311F08E1111C020916C055C
:10559000222311F02F110BC090916E05992311F069
:1055A0009C1105C030916D05332309F45DC30E9441
:1055B000161086E0F801A9E6B5E001900D928A95F3
:1055C000E1F7809197058823B9F080919405909137
:1055D00095050E945D0520919905322F3695381763
:1055E000190608F08BC080919305811185C0289A17
:1055F00010929705109296050E94E905F82E809169
:10560000B704F81639F0F092B7040E946C058F2D9C
:105610000E94190A80918905843009F0ECC083E06A
:105620008093E9008091E80082FFE5C08091E80066
:1056300090E085FF0AC00E940D0430E2832E912C79
:105640007801882309F47FC091E08091E8008B778E
:105650008093E800992309F4CEC0E090C904F0904B
:10566000CA048981E114F10409F47BC08E3F09F07A
:10567000BCC08A81833020F08550833008F0B5C0EB
:10568000EA81EE3008F0B1C0F0E0E651FB4C0C943A
:105690003C2F8091AF048150990B40916F054423BA
:1056A00099F021563B4FF901F08081569B4FFC0148
:1056B00080810E94EA0D0E94860C80916F058823EC
:1056C00019F08F2D0E9485128091B00490E0019610
:1056D0006091AF0470E00E94282F8093B0045BCEED
:1056E000D0926B05F8CED0926C05FDCED0926D05B0
:1056F0003BCFD0926E0540CF28987ACF20FF7CCF49
:105700009091960582FD0AC0911176CFD0929605B0
:1057100080919305882359F0289A6ECF992309F434
:105720006BCF10929605809193058823A9F3289852
:1057300063CF8091F100F70181937F01F1E08F1A2F
:10574000910809F481CF8091E80085FDF2CF809126
:10575000E8008B778093E8000E940D04882399F37A
:1057600073CF8D3009F4D3C0B8F4843009F4B6C0D7
:1057700048F4823049F108F0A2C0813009F18FEF7E
:10578000898333C0863009F4BFC008F4B2C08C30BE
:10579000B1F760E16A8329C0813109F411C140F495
:1057A0008F3009F4E0C008F4B5C00E942E0B1DC074
:1057B000833109F430C108F406C18E3F01F760CF90
:1057C0001A8289E08B8311C08A81823009F451C228
:1057D000833009F462C0813091F60E946C050E940A
:1057E000422F6B837C838D839E8340E250E0B8011F
:1057F00082E00E94B80A8091890560E4F62E853027
:1058000009F46ECD0E948C1250E9E52E54E0F52E7D
:105810002FE934E0AAEBB4E0F70191918D912E17B6
:105820003F0709F469CD9817C1F34AEB842E44E091
:10583000942E712CF40161904F01F70121907F01AA
:10584000261421F12624C12C33243394822D832164
:10585000A9F0CBA67CA60E94E90F9EA78DA7F1E038
:10586000FFA791E0862D832109F490E098AB4BA52A
:105870005CA56DA57EA58FA50E943225C394330C2F
:1058800027E0C212E3CFF7013197608273946FE093
:105890007612D0CF0E946C0533CD8091DF029091BB
:1058A000E002892B09F4A1CFDE011396EAEBF4E0C4
:1058B00081918D9324E0E93CF207D1F796CF8A815C
:1058C000823009F05CCF6B817C818D819E810E944A
:1058D000422F87E290E00E94413087CF4C816B815C
:1058E0008A810E947D0B9827892798279E838D8324
:1058F0007CCF2D813E813227232732274C816B813B
:105900008A810E943E0B71CF0E94FB0C6ECFDA821F
:1059100084EE58CFEC80F12C7DE1E716F10408F01D
:1059200064CF8A809B809824892498243801E00ED3
:10593000F11EC401845E9D4FE614F70409F455CFAF
:10594000E4EE8E16E1E09E0658F40E941D30F3014D
:105950008483FFEF8F1A9F0A2FEF621A720AE9CF32
:10596000F3011482F6CF8091DF029091E002892B3F
:1059700009F43BCF8C80912C6DE18616910408F0E0
:1059800034CFEA80FB80FE24EF24FE2438018E0C05
:105990009F1CC701845E9D4F8E149F0409F425CF80
:1059A00074EEE71671E0F70620F4F30164810E94BB
:1059B0004130FFEF6F1A7F0A2FEFE21AF20AE9CFA8
:1059C00082E08A8312CFEC80F12C6DE1E616F104BF
:1059D00008F00BCF8A809B80982489249824380172
:1059E000E00EF11EC40188966E147F0409F4FDCE0A
:1059F00074EA871671E0970658F40E941D30F3018F
:105A00008483FFEF8F1A9F0A2FEF621A720AEACF80
:105A1000F3011482F6CF8C80912C6DE186169104EF
:105A200008F0E3CEEA80FB80FE24EF24FE2474EA33
:105A3000E71671E0F70608F0D8CE84EA91E08E19F7
:105A40009F098815990508F4D0CE38018E0C9F1C4B
:105A5000C7018896E814F90409F4C7CEE4EAEE1603
:105A6000E1E0FE0620F4F30164810E944130FFEF83
:105A70006F1A7F0A2FEFE21AF20AEACF88E0E6EC0B
:105A8000F3E0D50101900D928A95E1F780E2F801EB
:105A900011928A95E9F786E0898388E0F501DE01B5
:105AA000159601900D928A95E1F79FCE8CEE898331
:105AB000DA821B821C8299CE8C81682F70E0762F4F
:105AC00066278B81860F972F911D092E000CAA0B3C
:105AD000BB0B25E0880F991FAA1FBB1F2A95D1F782
